{
	"contracts/Album.sol": {
		"Album": {
			"abi": [
				{
					"inputs": [],
					"stateMutability": "nonpayable",
					"type": "constructor"
				},
				{
					"anonymous": false,
					"inputs": [
						{
							"indexed": false,
							"internalType": "string",
							"name": "albumEvent_Artist",
							"type": "string"
						},
						{
							"indexed": false,
							"internalType": "string",
							"name": "albumEvent_Title",
							"type": "string"
						},
						{
							"indexed": false,
							"internalType": "uint256",
							"name": "albumEvent_Tracks",
							"type": "uint256"
						}
					],
					"name": "albumEvent",
					"type": "event"
				},
				{
					"inputs": [],
					"name": "albumTitle",
					"outputs": [
						{
							"internalType": "string",
							"name": "",
							"type": "string"
						}
					],
					"stateMutability": "view",
					"type": "function"
				},
				{
					"inputs": [],
					"name": "artist",
					"outputs": [
						{
							"internalType": "string",
							"name": "",
							"type": "string"
						}
					],
					"stateMutability": "view",
					"type": "function"
				},
				{
					"inputs": [],
					"name": "contractAlbum",
					"outputs": [
						{
							"internalType": "string",
							"name": "",
							"type": "string"
						}
					],
					"stateMutability": "view",
					"type": "function"
				},
				{
					"inputs": [],
					"name": "getAlbum",
					"outputs": [
						{
							"internalType": "string",
							"name": "",
							"type": "string"
						},
						{
							"internalType": "string",
							"name": "",
							"type": "string"
						},
						{
							"internalType": "uint256",
							"name": "",
							"type": "uint256"
						}
					],
					"stateMutability": "view",
					"type": "function"
				},
				{
					"inputs": [
						{
							"internalType": "string",
							"name": "_artist",
							"type": "string"
						},
						{
							"internalType": "string",
							"name": "_albumTitle",
							"type": "string"
						},
						{
							"internalType": "uint256",
							"name": "_tracks",
							"type": "uint256"
						}
					],
					"name": "setAlbum",
					"outputs": [],
					"stateMutability": "nonpayable",
					"type": "function"
				},
				{
					"inputs": [],
					"name": "tracks",
					"outputs": [
						{
							"internalType": "uint256",
							"name": "",
							"type": "uint256"
						}
					],
					"stateMutability": "view",
					"type": "function"
				}
			],
			"devdoc": {
				"kind": "dev",
				"methods": {},
				"version": 1
			},
			"evm": {
				"assembly": "    /* \"contracts/Album.sol\":58:842  contract Album {... */\n  mstore(0x40, 0x80)\n    /* \"contracts/Album.sol\":105:143  string public albumTitle = \"Nevermind\" */\n  mload(0x40)\n  dup1\n  0x40\n  add\n  0x40\n  mstore\n  dup1\n  0x09\n  dup2\n  mstore\n  0x20\n  add\n  0x4e657665726d696e640000000000000000000000000000000000000000000000\n  dup2\n  mstore\n  pop\n  0x01\n  swap1\n  dup2\n  tag_1\n  swap2\n  swap1\n  tag_2\n  jump\t// in\ntag_1:\n  pop\n    /* \"contracts/Album.sol\":414:518  constructor() {... */\n  callvalue\n  dup1\n  iszero\n  tag_3\n  jumpi\n  revert(0x00, 0x00)\ntag_3:\n  pop\n    /* \"contracts/Album.sol\":438:456  artist = \"Nirvana\" */\n  mload(0x40)\n  dup1\n  0x40\n  add\n  0x40\n  mstore\n  dup1\n  0x07\n  dup2\n  mstore\n  0x20\n  add\n  0x4e697276616e6100000000000000000000000000000000000000000000000000\n  dup2\n  mstore\n  pop\n    /* \"contracts/Album.sol\":438:444  artist */\n  0x00\n    /* \"contracts/Album.sol\":438:456  artist = \"Nirvana\" */\n  swap1\n  dup2\n  tag_6\n  swap2\n  swap1\n  tag_2\n  jump\t// in\ntag_6:\n  pop\n    /* \"contracts/Album.sol\":466:490  albumTitle = \"Nevermind\" */\n  mload(0x40)\n  dup1\n  0x40\n  add\n  0x40\n  mstore\n  dup1\n  0x09\n  dup2\n  mstore\n  0x20\n  add\n  0x4e657665726d696e640000000000000000000000000000000000000000000000\n  dup2\n  mstore\n  pop\n    /* \"contracts/Album.sol\":466:476  albumTitle */\n  0x01\n    /* \"contracts/Album.sol\":466:490  albumTitle = \"Nevermind\" */\n  swap1\n  dup2\n  tag_7\n  swap2\n  swap1\n  tag_2\n  jump\t// in\ntag_7:\n  pop\n    /* \"contracts/Album.sol\":509:511  13 */\n  0x0d\n    /* \"contracts/Album.sol\":500:506  tracks */\n  0x02\n    /* \"contracts/Album.sol\":500:511  tracks = 13 */\n  dup2\n  swap1\n  sstore\n  pop\n    /* \"contracts/Album.sol\":58:842  contract Album {... */\n  jump(tag_8)\n    /* \"#utility.yul\":7:106   */\ntag_9:\n    /* \"#utility.yul\":59:65   */\n  0x00\n    /* \"#utility.yul\":93:98   */\n  dup2\n    /* \"#utility.yul\":87:99   */\n  mload\n    /* \"#utility.yul\":77:99   */\n  swap1\n  pop\n    /* \"#utility.yul\":7:106   */\n  swap2\n  swap1\n  pop\n  jump\t// out\n    /* \"#utility.yul\":112:292   */\ntag_10:\n    /* \"#utility.yul\":160:237   */\n  0x4e487b7100000000000000000000000000000000000000000000000000000000\n    /* \"#utility.yul\":157:158   */\n  0x00\n    /* \"#utility.yul\":150:238   */\n  mstore\n    /* \"#utility.yul\":257:261   */\n  0x41\n    /* \"#utility.yul\":254:255   */\n  0x04\n    /* \"#utility.yul\":247:262   */\n  mstore\n    /* \"#utility.yul\":281:285   */\n  0x24\n    /* \"#utility.yul\":278:279   */\n  0x00\n    /* \"#utility.yul\":271:286   */\n  revert\n    /* \"#utility.yul\":298:478   */\ntag_11:\n    /* \"#utility.yul\":346:423   */\n  0x4e487b7100000000000000000000000000000000000000000000000000000000\n    /* \"#utility.yul\":343:344   */\n  0x00\n    /* \"#utility.yul\":336:424   */\n  mstore\n    /* \"#utility.yul\":443:447   */\n  0x22\n    /* \"#utility.yul\":440:441   */\n  0x04\n    /* \"#utility.yul\":433:448   */\n  mstore\n    /* \"#utility.yul\":467:471   */\n  0x24\n    /* \"#utility.yul\":464:465   */\n  0x00\n    /* \"#utility.yul\":457:472   */\n  revert\n    /* \"#utility.yul\":484:804   */\ntag_12:\n    /* \"#utility.yul\":528:534   */\n  0x00\n    /* \"#utility.yul\":565:566   */\n  0x02\n    /* \"#utility.yul\":559:563   */\n  dup3\n    /* \"#utility.yul\":555:567   */\n  div\n    /* \"#utility.yul\":545:567   */\n  swap1\n  pop\n    /* \"#utility.yul\":612:613   */\n  0x01\n    /* \"#utility.yul\":606:610   */\n  dup3\n    /* \"#utility.yul\":602:614   */\n  and\n    /* \"#utility.yul\":633:651   */\n  dup1\n    /* \"#utility.yul\":623:704   */\n  tag_34\n  jumpi\n    /* \"#utility.yul\":689:693   */\n  0x7f\n    /* \"#utility.yul\":681:687   */\n  dup3\n    /* \"#utility.yul\":677:694   */\n  and\n    /* \"#utility.yul\":667:694   */\n  swap2\n  pop\n    /* \"#utility.yul\":623:704   */\ntag_34:\n    /* \"#utility.yul\":751:753   */\n  0x20\n    /* \"#utility.yul\":743:749   */\n  dup3\n    /* \"#utility.yul\":740:754   */\n  lt\n    /* \"#utility.yul\":720:738   */\n  dup2\n    /* \"#utility.yul\":717:755   */\n  sub\n    /* \"#utility.yul\":714:798   */\n  tag_35\n  jumpi\n    /* \"#utility.yul\":770:788   */\n  tag_36\n  tag_11\n  jump\t// in\ntag_36:\n    /* \"#utility.yul\":714:798   */\ntag_35:\n    /* \"#utility.yul\":535:804   */\n  pop\n    /* \"#utility.yul\":484:804   */\n  swap2\n  swap1\n  pop\n  jump\t// out\n    /* \"#utility.yul\":810:951   */\ntag_13:\n    /* \"#utility.yul\":859:863   */\n  0x00\n    /* \"#utility.yul\":882:885   */\n  dup2\n    /* \"#utility.yul\":874:885   */\n  swap1\n  pop\n    /* \"#utility.yul\":905:908   */\n  dup2\n    /* \"#utility.yul\":902:903   */\n  0x00\n    /* \"#utility.yul\":895:909   */\n  mstore\n    /* \"#utility.yul\":939:943   */\n  0x20\n    /* \"#utility.yul\":936:937   */\n  0x00\n    /* \"#utility.yul\":926:944   */\n  keccak256\n    /* \"#utility.yul\":918:944   */\n  swap1\n  pop\n    /* \"#utility.yul\":810:951   */\n  swap2\n  swap1\n  pop\n  jump\t// out\n    /* \"#utility.yul\":957:1050   */\ntag_14:\n    /* \"#utility.yul\":994:1000   */\n  0x00\n    /* \"#utility.yul\":1041:1043   */\n  0x20\n    /* \"#utility.yul\":1036:1038   */\n  0x1f\n    /* \"#utility.yul\":1029:1034   */\n  dup4\n    /* \"#utility.yul\":1025:1039   */\n  add\n    /* \"#utility.yul\":1021:1044   */\n  div\n    /* \"#utility.yul\":1011:1044   */\n  swap1\n  pop\n    /* \"#utility.yul\":957:1050   */\n  swap2\n  swap1\n  pop\n  jump\t// out\n    /* \"#utility.yul\":1056:1163   */\ntag_15:\n    /* \"#utility.yul\":1100:1108   */\n  0x00\n    /* \"#utility.yul\":1150:1155   */\n  dup3\n    /* \"#utility.yul\":1144:1148   */\n  dup3\n    /* \"#utility.yul\":1140:1156   */\n  shl\n    /* \"#utility.yul\":1119:1156   */\n  swap1\n  pop\n    /* \"#utility.yul\":1056:1163   */\n  swap3\n  swap2\n  pop\n  pop\n  jump\t// out\n    /* \"#utility.yul\":1169:1562   */\ntag_16:\n    /* \"#utility.yul\":1238:1244   */\n  0x00\n    /* \"#utility.yul\":1288:1289   */\n  0x08\n    /* \"#utility.yul\":1276:1286   */\n  dup4\n    /* \"#utility.yul\":1272:1290   */\n  mul\n    /* \"#utility.yul\":1311:1408   */\n  tag_41\n    /* \"#utility.yul\":1341:1407   */\n  0xffffffffffffffffffffffffffffffffffffffffffffffffffffffffffffffff\n    /* \"#utility.yul\":1330:1339   */\n  dup3\n    /* \"#utility.yul\":1311:1408   */\n  tag_15\n  jump\t// in\ntag_41:\n    /* \"#utility.yul\":1429:1468   */\n  tag_42\n    /* \"#utility.yul\":1459:1467   */\n  dup7\n    /* \"#utility.yul\":1448:1457   */\n  dup4\n    /* \"#utility.yul\":1429:1468   */\n  tag_15\n  jump\t// in\ntag_42:\n    /* \"#utility.yul\":1417:1468   */\n  swap6\n  pop\n    /* \"#utility.yul\":1501:1505   */\n  dup1\n    /* \"#utility.yul\":1497:1506   */\n  not\n    /* \"#utility.yul\":1490:1495   */\n  dup5\n    /* \"#utility.yul\":1486:1507   */\n  and\n    /* \"#utility.yul\":1477:1507   */\n  swap4\n  pop\n    /* \"#utility.yul\":1550:1554   */\n  dup1\n    /* \"#utility.yul\":1540:1548   */\n  dup7\n    /* \"#utility.yul\":1536:1555   */\n  and\n    /* \"#utility.yul\":1529:1534   */\n  dup5\n    /* \"#utility.yul\":1526:1556   */\n  or\n    /* \"#utility.yul\":1516:1556   */\n  swap3\n  pop\n    /* \"#utility.yul\":1245:1562   */\n  pop\n  pop\n    /* \"#utility.yul\":1169:1562   */\n  swap4\n  swap3\n  pop\n  pop\n  pop\n  jump\t// out\n    /* \"#utility.yul\":1568:1645   */\ntag_17:\n    /* \"#utility.yul\":1605:1612   */\n  0x00\n    /* \"#utility.yul\":1634:1639   */\n  dup2\n    /* \"#utility.yul\":1623:1639   */\n  swap1\n  pop\n    /* \"#utility.yul\":1568:1645   */\n  swap2\n  swap1\n  pop\n  jump\t// out\n    /* \"#utility.yul\":1651:1711   */\ntag_18:\n    /* \"#utility.yul\":1679:1682   */\n  0x00\n    /* \"#utility.yul\":1700:1705   */\n  dup2\n    /* \"#utility.yul\":1693:1705   */\n  swap1\n  pop\n    /* \"#utility.yul\":1651:1711   */\n  swap2\n  swap1\n  pop\n  jump\t// out\n    /* \"#utility.yul\":1717:1859   */\ntag_19:\n    /* \"#utility.yul\":1767:1776   */\n  0x00\n    /* \"#utility.yul\":1800:1853   */\n  tag_46\n    /* \"#utility.yul\":1818:1852   */\n  tag_47\n    /* \"#utility.yul\":1827:1851   */\n  tag_48\n    /* \"#utility.yul\":1845:1850   */\n  dup5\n    /* \"#utility.yul\":1827:1851   */\n  tag_17\n  jump\t// in\ntag_48:\n    /* \"#utility.yul\":1818:1852   */\n  tag_18\n  jump\t// in\ntag_47:\n    /* \"#utility.yul\":1800:1853   */\n  tag_17\n  jump\t// in\ntag_46:\n    /* \"#utility.yul\":1787:1853   */\n  swap1\n  pop\n    /* \"#utility.yul\":1717:1859   */\n  swap2\n  swap1\n  pop\n  jump\t// out\n    /* \"#utility.yul\":1865:1940   */\ntag_20:\n    /* \"#utility.yul\":1908:1911   */\n  0x00\n    /* \"#utility.yul\":1929:1934   */\n  dup2\n    /* \"#utility.yul\":1922:1934   */\n  swap1\n  pop\n    /* \"#utility.yul\":1865:1940   */\n  swap2\n  swap1\n  pop\n  jump\t// out\n    /* \"#utility.yul\":1946:2215   */\ntag_21:\n    /* \"#utility.yul\":2056:2095   */\n  tag_51\n    /* \"#utility.yul\":2087:2094   */\n  dup4\n    /* \"#utility.yul\":2056:2095   */\n  tag_19\n  jump\t// in\ntag_51:\n    /* \"#utility.yul\":2117:2208   */\n  tag_52\n    /* \"#utility.yul\":2166:2207   */\n  tag_53\n    /* \"#utility.yul\":2190:2206   */\n  dup3\n    /* \"#utility.yul\":2166:2207   */\n  tag_20\n  jump\t// in\ntag_53:\n    /* \"#utility.yul\":2158:2164   */\n  dup5\n    /* \"#utility.yul\":2151:2155   */\n  dup5\n    /* \"#utility.yul\":2145:2156   */\n  sload\n    /* \"#utility.yul\":2117:2208   */\n  tag_16\n  jump\t// in\ntag_52:\n    /* \"#utility.yul\":2111:2115   */\n  dup3\n    /* \"#utility.yul\":2104:2209   */\n  sstore\n    /* \"#utility.yul\":2022:2215   */\n  pop\n    /* \"#utility.yul\":1946:2215   */\n  pop\n  pop\n  pop\n  jump\t// out\n    /* \"#utility.yul\":2221:2294   */\ntag_22:\n    /* \"#utility.yul\":2266:2269   */\n  0x00\n    /* \"#utility.yul\":2287:2288   */\n  0x00\n    /* \"#utility.yul\":2280:2288   */\n  swap1\n  pop\n    /* \"#utility.yul\":2221:2294   */\n  swap1\n  jump\t// out\n    /* \"#utility.yul\":2300:2489   */\ntag_23:\n    /* \"#utility.yul\":2377:2409   */\n  tag_56\n  tag_22\n  jump\t// in\ntag_56:\n    /* \"#utility.yul\":2418:2483   */\n  tag_57\n    /* \"#utility.yul\":2476:2482   */\n  dup2\n    /* \"#utility.yul\":2468:2474   */\n  dup5\n    /* \"#utility.yul\":2462:2466   */\n  dup5\n    /* \"#utility.yul\":2418:2483   */\n  tag_21\n  jump\t// in\ntag_57:\n    /* \"#utility.yul\":2353:2489   */\n  pop\n    /* \"#utility.yul\":2300:2489   */\n  pop\n  pop\n  jump\t// out\n    /* \"#utility.yul\":2495:2681   */\ntag_24:\n    /* \"#utility.yul\":2555:2675   */\ntag_59:\n    /* \"#utility.yul\":2572:2575   */\n  dup2\n    /* \"#utility.yul\":2565:2570   */\n  dup2\n    /* \"#utility.yul\":2562:2576   */\n  lt\n    /* \"#utility.yul\":2555:2675   */\n  iszero\n  tag_61\n  jumpi\n    /* \"#utility.yul\":2626:2665   */\n  tag_62\n    /* \"#utility.yul\":2663:2664   */\n  0x00\n    /* \"#utility.yul\":2656:2661   */\n  dup3\n    /* \"#utility.yul\":2626:2665   */\n  tag_23\n  jump\t// in\ntag_62:\n    /* \"#utility.yul\":2599:2600   */\n  0x01\n    /* \"#utility.yul\":2592:2597   */\n  dup2\n    /* \"#utility.yul\":2588:2601   */\n  add\n    /* \"#utility.yul\":2579:2601   */\n  swap1\n  pop\n    /* \"#utility.yul\":2555:2675   */\n  jump(tag_59)\ntag_61:\n    /* \"#utility.yul\":2495:2681   */\n  pop\n  pop\n  jump\t// out\n    /* \"#utility.yul\":2687:3230   */\ntag_25:\n    /* \"#utility.yul\":2788:2790   */\n  0x1f\n    /* \"#utility.yul\":2783:2786   */\n  dup3\n    /* \"#utility.yul\":2780:2791   */\n  gt\n    /* \"#utility.yul\":2777:3223   */\n  iszero\n  tag_64\n  jumpi\n    /* \"#utility.yul\":2822:2860   */\n  tag_65\n    /* \"#utility.yul\":2854:2859   */\n  dup2\n    /* \"#utility.yul\":2822:2860   */\n  tag_13\n  jump\t// in\ntag_65:\n    /* \"#utility.yul\":2906:2935   */\n  tag_66\n    /* \"#utility.yul\":2924:2934   */\n  dup5\n    /* \"#utility.yul\":2906:2935   */\n  tag_14\n  jump\t// in\ntag_66:\n    /* \"#utility.yul\":2896:2904   */\n  dup2\n    /* \"#utility.yul\":2892:2936   */\n  add\n    /* \"#utility.yul\":3089:3091   */\n  0x20\n    /* \"#utility.yul\":3077:3087   */\n  dup6\n    /* \"#utility.yul\":3074:3092   */\n  lt\n    /* \"#utility.yul\":3071:3120   */\n  iszero\n  tag_67\n  jumpi\n    /* \"#utility.yul\":3110:3118   */\n  dup2\n    /* \"#utility.yul\":3095:3118   */\n  swap1\n  pop\n    /* \"#utility.yul\":3071:3120   */\ntag_67:\n    /* \"#utility.yul\":3133:3213   */\n  tag_68\n    /* \"#utility.yul\":3189:3211   */\n  tag_69\n    /* \"#utility.yul\":3207:3210   */\n  dup6\n    /* \"#utility.yul\":3189:3211   */\n  tag_14\n  jump\t// in\ntag_69:\n    /* \"#utility.yul\":3179:3187   */\n  dup4\n    /* \"#utility.yul\":3175:3212   */\n  add\n    /* \"#utility.yul\":3162:3173   */\n  dup3\n    /* \"#utility.yul\":3133:3213   */\n  tag_24\n  jump\t// in\ntag_68:\n    /* \"#utility.yul\":2792:3223   */\n  pop\n  pop\n    /* \"#utility.yul\":2777:3223   */\ntag_64:\n    /* \"#utility.yul\":2687:3230   */\n  pop\n  pop\n  pop\n  jump\t// out\n    /* \"#utility.yul\":3236:3353   */\ntag_26:\n    /* \"#utility.yul\":3290:3298   */\n  0x00\n    /* \"#utility.yul\":3340:3345   */\n  dup3\n    /* \"#utility.yul\":3334:3338   */\n  dup3\n    /* \"#utility.yul\":3330:3346   */\n  shr\n    /* \"#utility.yul\":3309:3346   */\n  swap1\n  pop\n    /* \"#utility.yul\":3236:3353   */\n  swap3\n  swap2\n  pop\n  pop\n  jump\t// out\n    /* \"#utility.yul\":3359:3528   */\ntag_27:\n    /* \"#utility.yul\":3403:3409   */\n  0x00\n    /* \"#utility.yul\":3436:3487   */\n  tag_72\n    /* \"#utility.yul\":3484:3485   */\n  0x00\n    /* \"#utility.yul\":3480:3486   */\n  not\n    /* \"#utility.yul\":3472:3477   */\n  dup5\n    /* \"#utility.yul\":3469:3470   */\n  0x08\n    /* \"#utility.yul\":3465:3478   */\n  mul\n    /* \"#utility.yul\":3436:3487   */\n  tag_26\n  jump\t// in\ntag_72:\n    /* \"#utility.yul\":3432:3488   */\n  not\n    /* \"#utility.yul\":3517:3521   */\n  dup1\n    /* \"#utility.yul\":3511:3515   */\n  dup4\n    /* \"#utility.yul\":3507:3522   */\n  and\n    /* \"#utility.yul\":3497:3522   */\n  swap2\n  pop\n    /* \"#utility.yul\":3410:3528   */\n  pop\n    /* \"#utility.yul\":3359:3528   */\n  swap3\n  swap2\n  pop\n  pop\n  jump\t// out\n    /* \"#utility.yul\":3533:3828   */\ntag_28:\n    /* \"#utility.yul\":3609:3613   */\n  0x00\n    /* \"#utility.yul\":3755:3784   */\n  tag_74\n    /* \"#utility.yul\":3780:3783   */\n  dup4\n    /* \"#utility.yul\":3774:3778   */\n  dup4\n    /* \"#utility.yul\":3755:3784   */\n  tag_27\n  jump\t// in\ntag_74:\n    /* \"#utility.yul\":3747:3784   */\n  swap2\n  pop\n    /* \"#utility.yul\":3817:3820   */\n  dup3\n    /* \"#utility.yul\":3814:3815   */\n  0x02\n    /* \"#utility.yul\":3810:3821   */\n  mul\n    /* \"#utility.yul\":3804:3808   */\n  dup3\n    /* \"#utility.yul\":3801:3822   */\n  or\n    /* \"#utility.yul\":3793:3822   */\n  swap1\n  pop\n    /* \"#utility.yul\":3533:3828   */\n  swap3\n  swap2\n  pop\n  pop\n  jump\t// out\n    /* \"#utility.yul\":3833:5228   */\ntag_2:\n    /* \"#utility.yul\":3950:3987   */\n  tag_76\n    /* \"#utility.yul\":3983:3986   */\n  dup3\n    /* \"#utility.yul\":3950:3987   */\n  tag_9\n  jump\t// in\ntag_76:\n    /* \"#utility.yul\":4052:4070   */\n  0xffffffffffffffff\n    /* \"#utility.yul\":4044:4050   */\n  dup2\n    /* \"#utility.yul\":4041:4071   */\n  gt\n    /* \"#utility.yul\":4038:4094   */\n  iszero\n  tag_77\n  jumpi\n    /* \"#utility.yul\":4074:4092   */\n  tag_78\n  tag_10\n  jump\t// in\ntag_78:\n    /* \"#utility.yul\":4038:4094   */\ntag_77:\n    /* \"#utility.yul\":4118:4156   */\n  tag_79\n    /* \"#utility.yul\":4150:4154   */\n  dup3\n    /* \"#utility.yul\":4144:4155   */\n  sload\n    /* \"#utility.yul\":4118:4156   */\n  tag_12\n  jump\t// in\ntag_79:\n    /* \"#utility.yul\":4203:4270   */\n  tag_80\n    /* \"#utility.yul\":4263:4269   */\n  dup3\n    /* \"#utility.yul\":4255:4261   */\n  dup3\n    /* \"#utility.yul\":4249:4253   */\n  dup6\n    /* \"#utility.yul\":4203:4270   */\n  tag_25\n  jump\t// in\ntag_80:\n    /* \"#utility.yul\":4297:4298   */\n  0x00\n    /* \"#utility.yul\":4321:4325   */\n  0x20\n    /* \"#utility.yul\":4308:4325   */\n  swap1\n  pop\n    /* \"#utility.yul\":4353:4355   */\n  0x1f\n    /* \"#utility.yul\":4345:4351   */\n  dup4\n    /* \"#utility.yul\":4342:4356   */\n  gt\n    /* \"#utility.yul\":4370:4371   */\n  0x01\n    /* \"#utility.yul\":4365:4983   */\n  dup2\n  eq\n  tag_82\n  jumpi\n    /* \"#utility.yul\":5027:5028   */\n  0x00\n    /* \"#utility.yul\":5044:5050   */\n  dup5\n    /* \"#utility.yul\":5041:5118   */\n  iszero\n  tag_83\n  jumpi\n    /* \"#utility.yul\":5093:5102   */\n  dup3\n    /* \"#utility.yul\":5088:5091   */\n  dup8\n    /* \"#utility.yul\":5084:5103   */\n  add\n    /* \"#utility.yul\":5078:5104   */\n  mload\n    /* \"#utility.yul\":5069:5104   */\n  swap1\n  pop\n    /* \"#utility.yul\":5041:5118   */\ntag_83:\n    /* \"#utility.yul\":5144:5211   */\n  tag_84\n    /* \"#utility.yul\":5204:5210   */\n  dup6\n    /* \"#utility.yul\":5197:5202   */\n  dup3\n    /* \"#utility.yul\":5144:5211   */\n  tag_28\n  jump\t// in\ntag_84:\n    /* \"#utility.yul\":5138:5142   */\n  dup7\n    /* \"#utility.yul\":5131:5212   */\n  sstore\n    /* \"#utility.yul\":5000:5222   */\n  pop\n    /* \"#utility.yul\":4335:5222   */\n  jump(tag_81)\n    /* \"#utility.yul\":4365:4983   */\ntag_82:\n    /* \"#utility.yul\":4417:4421   */\n  0x1f\n    /* \"#utility.yul\":4413:4422   */\n  not\n    /* \"#utility.yul\":4405:4411   */\n  dup5\n    /* \"#utility.yul\":4401:4423   */\n  and\n    /* \"#utility.yul\":4451:4488   */\n  tag_85\n    /* \"#utility.yul\":4483:4487   */\n  dup7\n    /* \"#utility.yul\":4451:4488   */\n  tag_13\n  jump\t// in\ntag_85:\n    /* \"#utility.yul\":4510:4511   */\n  0x00\n    /* \"#utility.yul\":4524:4732   */\ntag_86:\n    /* \"#utility.yul\":4538:4545   */\n  dup3\n    /* \"#utility.yul\":4535:4536   */\n  dup2\n    /* \"#utility.yul\":4532:4546   */\n  lt\n    /* \"#utility.yul\":4524:4732   */\n  iszero\n  tag_88\n  jumpi\n    /* \"#utility.yul\":4617:4626   */\n  dup5\n    /* \"#utility.yul\":4612:4615   */\n  dup10\n    /* \"#utility.yul\":4608:4627   */\n  add\n    /* \"#utility.yul\":4602:4628   */\n  mload\n    /* \"#utility.yul\":4594:4600   */\n  dup3\n    /* \"#utility.yul\":4587:4629   */\n  sstore\n    /* \"#utility.yul\":4668:4669   */\n  0x01\n    /* \"#utility.yul\":4660:4666   */\n  dup3\n    /* \"#utility.yul\":4656:4670   */\n  add\n    /* \"#utility.yul\":4646:4670   */\n  swap2\n  pop\n    /* \"#utility.yul\":4715:4717   */\n  0x20\n    /* \"#utility.yul\":4704:4713   */\n  dup6\n    /* \"#utility.yul\":4700:4718   */\n  add\n    /* \"#utility.yul\":4687:4718   */\n  swap5\n  pop\n    /* \"#utility.yul\":4561:4565   */\n  0x20\n    /* \"#utility.yul\":4558:4559   */\n  dup2\n    /* \"#utility.yul\":4554:4566   */\n  add\n    /* \"#utility.yul\":4549:4566   */\n  swap1\n  pop\n    /* \"#utility.yul\":4524:4732   */\n  jump(tag_86)\ntag_88:\n    /* \"#utility.yul\":4760:4766   */\n  dup7\n    /* \"#utility.yul\":4751:4758   */\n  dup4\n    /* \"#utility.yul\":4748:4767   */\n  lt\n    /* \"#utility.yul\":4745:4924   */\n  iszero\n  tag_89\n  jumpi\n    /* \"#utility.yul\":4818:4827   */\n  dup5\n    /* \"#utility.yul\":4813:4816   */\n  dup10\n    /* \"#utility.yul\":4809:4828   */\n  add\n    /* \"#utility.yul\":4803:4829   */\n  mload\n    /* \"#utility.yul\":4861:4909   */\n  tag_90\n    /* \"#utility.yul\":4903:4907   */\n  0x1f\n    /* \"#utility.yul\":4895:4901   */\n  dup10\n    /* \"#utility.yul\":4891:4908   */\n  and\n    /* \"#utility.yul\":4880:4889   */\n  dup3\n    /* \"#utility.yul\":4861:4909   */\n  tag_27\n  jump\t// in\ntag_90:\n    /* \"#utility.yul\":4853:4859   */\n  dup4\n    /* \"#utility.yul\":4846:4910   */\n  sstore\n    /* \"#utility.yul\":4768:4924   */\n  pop\n    /* \"#utility.yul\":4745:4924   */\ntag_89:\n    /* \"#utility.yul\":4970:4971   */\n  0x01\n    /* \"#utility.yul\":4966:4967   */\n  0x02\n    /* \"#utility.yul\":4958:4964   */\n  dup9\n    /* \"#utility.yul\":4954:4968   */\n  mul\n    /* \"#utility.yul\":4950:4972   */\n  add\n    /* \"#utility.yul\":4944:4948   */\n  dup9\n    /* \"#utility.yul\":4937:4973   */\n  sstore\n    /* \"#utility.yul\":4372:4983   */\n  pop\n  pop\n  pop\n    /* \"#utility.yul\":4335:5222   */\ntag_81:\n  pop\n    /* \"#utility.yul\":3925:5228   */\n  pop\n  pop\n  pop\n    /* \"#utility.yul\":3833:5228   */\n  pop\n  pop\n  jump\t// out\n    /* \"contracts/Album.sol\":58:842  contract Album {... */\ntag_8:\n  dataSize(sub_0)\n  dup1\n  dataOffset(sub_0)\n  0x00\n  codecopy\n  0x00\n  return\nstop\n\nsub_0: assembly {\n        /* \"contracts/Album.sol\":58:842  contract Album {... */\n      mstore(0x40, 0x80)\n      callvalue\n      dup1\n      iszero\n      tag_1\n      jumpi\n      revert(0x00, 0x00)\n    tag_1:\n      pop\n      jumpi(tag_2, lt(calldatasize, 0x04))\n      shr(0xe0, calldataload(0x00))\n      dup1\n      0x1fe5726c\n      eq\n      tag_3\n      jumpi\n      dup1\n      0x43bc1612\n      eq\n      tag_4\n      jumpi\n      dup1\n      0x623118e6\n      eq\n      tag_5\n      jumpi\n      dup1\n      0x8a48ca41\n      eq\n      tag_6\n      jumpi\n      dup1\n      0xd3c783f4\n      eq\n      tag_7\n      jumpi\n      dup1\n      0xdc9e0a71\n      eq\n      tag_8\n      jumpi\n    tag_2:\n      revert(0x00, 0x00)\n        /* \"contracts/Album.sol\":105:143  string public albumTitle = \"Nevermind\" */\n    tag_3:\n      tag_9\n      tag_10\n      jump\t// in\n    tag_9:\n      mload(0x40)\n      tag_11\n      swap2\n      swap1\n      tag_12\n      jump\t// in\n    tag_11:\n      mload(0x40)\n      dup1\n      swap2\n      sub\n      swap1\n      return\n        /* \"contracts/Album.sol\":79:99  string public artist */\n    tag_4:\n      tag_13\n      tag_14\n      jump\t// in\n    tag_13:\n      mload(0x40)\n      tag_15\n      swap2\n      swap1\n      tag_12\n      jump\t// in\n    tag_15:\n      mload(0x40)\n      dup1\n      swap2\n      sub\n      swap1\n      return\n        /* \"contracts/Album.sol\":149:167  uint public tracks */\n    tag_5:\n      tag_16\n      tag_17\n      jump\t// in\n    tag_16:\n      mload(0x40)\n      tag_18\n      swap2\n      swap1\n      tag_19\n      jump\t// in\n    tag_18:\n      mload(0x40)\n      dup1\n      swap2\n      sub\n      swap1\n      return\n        /* \"contracts/Album.sol\":658:840  function setAlbum(string memory _artist, string memory _albumTitle, uint _tracks) public {... */\n    tag_6:\n      tag_20\n      0x04\n      dup1\n      calldatasize\n      sub\n      dup2\n      add\n      swap1\n      tag_21\n      swap2\n      swap1\n      tag_22\n      jump\t// in\n    tag_21:\n      tag_23\n      jump\t// in\n    tag_20:\n      stop\n        /* \"contracts/Album.sol\":524:652  function getAlbum() public view returns(string memory, string memory, uint) {... */\n    tag_7:\n      tag_24\n      tag_25\n      jump\t// in\n    tag_24:\n      mload(0x40)\n      tag_26\n      swap4\n      swap3\n      swap2\n      swap1\n      tag_27\n      jump\t// in\n    tag_26:\n      mload(0x40)\n      dup1\n      swap2\n      sub\n      swap1\n      return\n        /* \"contracts/Album.sol\":174:226  string public constant contractAlbum = 'Kris Bennet' */\n    tag_8:\n      tag_28\n      tag_29\n      jump\t// in\n    tag_28:\n      mload(0x40)\n      tag_30\n      swap2\n      swap1\n      tag_12\n      jump\t// in\n    tag_30:\n      mload(0x40)\n      dup1\n      swap2\n      sub\n      swap1\n      return\n        /* \"contracts/Album.sol\":105:143  string public albumTitle = \"Nevermind\" */\n    tag_10:\n      0x01\n      dup1\n      sload\n      tag_31\n      swap1\n      tag_32\n      jump\t// in\n    tag_31:\n      dup1\n      0x1f\n      add\n      0x20\n      dup1\n      swap2\n      div\n      mul\n      0x20\n      add\n      mload(0x40)\n      swap1\n      dup2\n      add\n      0x40\n      mstore\n      dup1\n      swap3\n      swap2\n      swap1\n      dup2\n      dup2\n      mstore\n      0x20\n      add\n      dup3\n      dup1\n      sload\n      tag_33\n      swap1\n      tag_32\n      jump\t// in\n    tag_33:\n      dup1\n      iszero\n      tag_34\n      jumpi\n      dup1\n      0x1f\n      lt\n      tag_35\n      jumpi\n      0x0100\n      dup1\n      dup4\n      sload\n      div\n      mul\n      dup4\n      mstore\n      swap2\n      0x20\n      add\n      swap2\n      jump(tag_34)\n    tag_35:\n      dup3\n      add\n      swap2\n      swap1\n      0x00\n      mstore\n      keccak256(0x00, 0x20)\n      swap1\n    tag_36:\n      dup2\n      sload\n      dup2\n      mstore\n      swap1\n      0x01\n      add\n      swap1\n      0x20\n      add\n      dup1\n      dup4\n      gt\n      tag_36\n      jumpi\n      dup3\n      swap1\n      sub\n      0x1f\n      and\n      dup3\n      add\n      swap2\n    tag_34:\n      pop\n      pop\n      pop\n      pop\n      pop\n      dup2\n      jump\t// out\n        /* \"contracts/Album.sol\":79:99  string public artist */\n    tag_14:\n      0x00\n      dup1\n      sload\n      tag_37\n      swap1\n      tag_32\n      jump\t// in\n    tag_37:\n      dup1\n      0x1f\n      add\n      0x20\n      dup1\n      swap2\n      div\n      mul\n      0x20\n      add\n      mload(0x40)\n      swap1\n      dup2\n      add\n      0x40\n      mstore\n      dup1\n      swap3\n      swap2\n      swap1\n      dup2\n      dup2\n      mstore\n      0x20\n      add\n      dup3\n      dup1\n      sload\n      tag_38\n      swap1\n      tag_32\n      jump\t// in\n    tag_38:\n      dup1\n      iszero\n      tag_39\n      jumpi\n      dup1\n      0x1f\n      lt\n      tag_40\n      jumpi\n      0x0100\n      dup1\n      dup4\n      sload\n      div\n      mul\n      dup4\n      mstore\n      swap2\n      0x20\n      add\n      swap2\n      jump(tag_39)\n    tag_40:\n      dup3\n      add\n      swap2\n      swap1\n      0x00\n      mstore\n      keccak256(0x00, 0x20)\n      swap1\n    tag_41:\n      dup2\n      sload\n      dup2\n      mstore\n      swap1\n      0x01\n      add\n      swap1\n      0x20\n      add\n      dup1\n      dup4\n      gt\n      tag_41\n      jumpi\n      dup3\n      swap1\n      sub\n      0x1f\n      and\n      dup3\n      add\n      swap2\n    tag_39:\n      pop\n      pop\n      pop\n      pop\n      pop\n      dup2\n      jump\t// out\n        /* \"contracts/Album.sol\":149:167  uint public tracks */\n    tag_17:\n      sload(0x02)\n      dup2\n      jump\t// out\n        /* \"contracts/Album.sol\":658:840  function setAlbum(string memory _artist, string memory _albumTitle, uint _tracks) public {... */\n    tag_23:\n        /* \"contracts/Album.sol\":766:773  _artist */\n      dup3\n        /* \"contracts/Album.sol\":757:763  artist */\n      0x00\n        /* \"contracts/Album.sol\":757:773  artist = _artist */\n      swap1\n      dup2\n      tag_43\n      swap2\n      swap1\n      tag_44\n      jump\t// in\n    tag_43:\n      pop\n        /* \"contracts/Album.sol\":796:807  _albumTitle */\n      dup2\n        /* \"contracts/Album.sol\":783:793  albumTitle */\n      0x01\n        /* \"contracts/Album.sol\":783:807  albumTitle = _albumTitle */\n      swap1\n      dup2\n      tag_45\n      swap2\n      swap1\n      tag_44\n      jump\t// in\n    tag_45:\n      pop\n        /* \"contracts/Album.sol\":826:833  _tracks */\n      dup1\n        /* \"contracts/Album.sol\":817:823  tracks */\n      0x02\n        /* \"contracts/Album.sol\":817:833  tracks = _tracks */\n      dup2\n      swap1\n      sstore\n      pop\n        /* \"contracts/Album.sol\":658:840  function setAlbum(string memory _artist, string memory _albumTitle, uint _tracks) public {... */\n      pop\n      pop\n      pop\n      jump\t// out\n        /* \"contracts/Album.sol\":524:652  function getAlbum() public view returns(string memory, string memory, uint) {... */\n    tag_25:\n        /* \"contracts/Album.sol\":564:577  string memory */\n      0x60\n        /* \"contracts/Album.sol\":579:592  string memory */\n      dup1\n        /* \"contracts/Album.sol\":594:598  uint */\n      0x00\n        /* \"contracts/Album.sol\":618:624  artist */\n      0x00\n        /* \"contracts/Album.sol\":626:636  albumTitle */\n      0x01\n        /* \"contracts/Album.sol\":638:644  tracks */\n      sload(0x02)\n        /* \"contracts/Album.sol\":610:645  return (artist, albumTitle, tracks) */\n      dup3\n      dup1\n      sload\n      tag_47\n      swap1\n      tag_32\n      jump\t// in\n    tag_47:\n      dup1\n      0x1f\n      add\n      0x20\n      dup1\n      swap2\n      div\n      mul\n      0x20\n      add\n      mload(0x40)\n      swap1\n      dup2\n      add\n      0x40\n      mstore\n      dup1\n      swap3\n      swap2\n      swap1\n      dup2\n      dup2\n      mstore\n      0x20\n      add\n      dup3\n      dup1\n      sload\n      tag_48\n      swap1\n      tag_32\n      jump\t// in\n    tag_48:\n      dup1\n      iszero\n      tag_49\n      jumpi\n      dup1\n      0x1f\n      lt\n      tag_50\n      jumpi\n      0x0100\n      dup1\n      dup4\n      sload\n      div\n      mul\n      dup4\n      mstore\n      swap2\n      0x20\n      add\n      swap2\n      jump(tag_49)\n    tag_50:\n      dup3\n      add\n      swap2\n      swap1\n      0x00\n      mstore\n      keccak256(0x00, 0x20)\n      swap1\n    tag_51:\n      dup2\n      sload\n      dup2\n      mstore\n      swap1\n      0x01\n      add\n      swap1\n      0x20\n      add\n      dup1\n      dup4\n      gt\n      tag_51\n      jumpi\n      dup3\n      swap1\n      sub\n      0x1f\n      and\n      dup3\n      add\n      swap2\n    tag_49:\n      pop\n      pop\n      pop\n      pop\n      pop\n      swap3\n      pop\n      dup2\n      dup1\n      sload\n      tag_52\n      swap1\n      tag_32\n      jump\t// in\n    tag_52:\n      dup1\n      0x1f\n      add\n      0x20\n      dup1\n      swap2\n      div\n      mul\n      0x20\n      add\n      mload(0x40)\n      swap1\n      dup2\n      add\n      0x40\n      mstore\n      dup1\n      swap3\n      swap2\n      swap1\n      dup2\n      dup2\n      mstore\n      0x20\n      add\n      dup3\n      dup1\n      sload\n      tag_53\n      swap1\n      tag_32\n      jump\t// in\n    tag_53:\n      dup1\n      iszero\n      tag_54\n      jumpi\n      dup1\n      0x1f\n      lt\n      tag_55\n      jumpi\n      0x0100\n      dup1\n      dup4\n      sload\n      div\n      mul\n      dup4\n      mstore\n      swap2\n      0x20\n      add\n      swap2\n      jump(tag_54)\n    tag_55:\n      dup3\n      add\n      swap2\n      swap1\n      0x00\n      mstore\n      keccak256(0x00, 0x20)\n      swap1\n    tag_56:\n      dup2\n      sload\n      dup2\n      mstore\n      swap1\n      0x01\n      add\n      swap1\n      0x20\n      add\n      dup1\n      dup4\n      gt\n      tag_56\n      jumpi\n      dup3\n      swap1\n      sub\n      0x1f\n      and\n      dup3\n      add\n      swap2\n    tag_54:\n      pop\n      pop\n      pop\n      pop\n      pop\n      swap2\n      pop\n      swap3\n      pop\n      swap3\n      pop\n      swap3\n      pop\n        /* \"contracts/Album.sol\":524:652  function getAlbum() public view returns(string memory, string memory, uint) {... */\n      swap1\n      swap2\n      swap3\n      jump\t// out\n        /* \"contracts/Album.sol\":174:226  string public constant contractAlbum = 'Kris Bennet' */\n    tag_29:\n      mload(0x40)\n      dup1\n      0x40\n      add\n      0x40\n      mstore\n      dup1\n      0x0b\n      dup2\n      mstore\n      0x20\n      add\n      0x4b7269732042656e6e6574000000000000000000000000000000000000000000\n      dup2\n      mstore\n      pop\n      dup2\n      jump\t// out\n        /* \"#utility.yul\":7:106   */\n    tag_57:\n        /* \"#utility.yul\":59:65   */\n      0x00\n        /* \"#utility.yul\":93:98   */\n      dup2\n        /* \"#utility.yul\":87:99   */\n      mload\n        /* \"#utility.yul\":77:99   */\n      swap1\n      pop\n        /* \"#utility.yul\":7:106   */\n      swap2\n      swap1\n      pop\n      jump\t// out\n        /* \"#utility.yul\":112:281   */\n    tag_58:\n        /* \"#utility.yul\":196:207   */\n      0x00\n        /* \"#utility.yul\":230:236   */\n      dup3\n        /* \"#utility.yul\":225:228   */\n      dup3\n        /* \"#utility.yul\":218:237   */\n      mstore\n        /* \"#utility.yul\":270:274   */\n      0x20\n        /* \"#utility.yul\":265:268   */\n      dup3\n        /* \"#utility.yul\":261:275   */\n      add\n        /* \"#utility.yul\":246:275   */\n      swap1\n      pop\n        /* \"#utility.yul\":112:281   */\n      swap3\n      swap2\n      pop\n      pop\n      jump\t// out\n        /* \"#utility.yul\":287:426   */\n    tag_59:\n        /* \"#utility.yul\":376:382   */\n      dup3\n        /* \"#utility.yul\":371:374   */\n      dup2\n        /* \"#utility.yul\":366:369   */\n      dup4\n        /* \"#utility.yul\":360:383   */\n      mcopy\n        /* \"#utility.yul\":417:418   */\n      0x00\n        /* \"#utility.yul\":408:414   */\n      dup4\n        /* \"#utility.yul\":403:406   */\n      dup4\n        /* \"#utility.yul\":399:415   */\n      add\n        /* \"#utility.yul\":392:419   */\n      mstore\n        /* \"#utility.yul\":287:426   */\n      pop\n      pop\n      pop\n      jump\t// out\n        /* \"#utility.yul\":432:534   */\n    tag_60:\n        /* \"#utility.yul\":473:479   */\n      0x00\n        /* \"#utility.yul\":524:526   */\n      0x1f\n        /* \"#utility.yul\":520:527   */\n      not\n        /* \"#utility.yul\":515:517   */\n      0x1f\n        /* \"#utility.yul\":508:513   */\n      dup4\n        /* \"#utility.yul\":504:518   */\n      add\n        /* \"#utility.yul\":500:528   */\n      and\n        /* \"#utility.yul\":490:528   */\n      swap1\n      pop\n        /* \"#utility.yul\":432:534   */\n      swap2\n      swap1\n      pop\n      jump\t// out\n        /* \"#utility.yul\":540:917   */\n    tag_61:\n        /* \"#utility.yul\":628:631   */\n      0x00\n        /* \"#utility.yul\":656:695   */\n      tag_100\n        /* \"#utility.yul\":689:694   */\n      dup3\n        /* \"#utility.yul\":656:695   */\n      tag_57\n      jump\t// in\n    tag_100:\n        /* \"#utility.yul\":711:782   */\n      tag_101\n        /* \"#utility.yul\":775:781   */\n      dup2\n        /* \"#utility.yul\":770:773   */\n      dup6\n        /* \"#utility.yul\":711:782   */\n      tag_58\n      jump\t// in\n    tag_101:\n        /* \"#utility.yul\":704:782   */\n      swap4\n      pop\n        /* \"#utility.yul\":791:856   */\n      tag_102\n        /* \"#utility.yul\":849:855   */\n      dup2\n        /* \"#utility.yul\":844:847   */\n      dup6\n        /* \"#utility.yul\":837:841   */\n      0x20\n        /* \"#utility.yul\":830:835   */\n      dup7\n        /* \"#utility.yul\":826:842   */\n      add\n        /* \"#utility.yul\":791:856   */\n      tag_59\n      jump\t// in\n    tag_102:\n        /* \"#utility.yul\":881:910   */\n      tag_103\n        /* \"#utility.yul\":903:909   */\n      dup2\n        /* \"#utility.yul\":881:910   */\n      tag_60\n      jump\t// in\n    tag_103:\n        /* \"#utility.yul\":876:879   */\n      dup5\n        /* \"#utility.yul\":872:911   */\n      add\n        /* \"#utility.yul\":865:911   */\n      swap2\n      pop\n        /* \"#utility.yul\":632:917   */\n      pop\n        /* \"#utility.yul\":540:917   */\n      swap3\n      swap2\n      pop\n      pop\n      jump\t// out\n        /* \"#utility.yul\":923:1236   */\n    tag_12:\n        /* \"#utility.yul\":1036:1040   */\n      0x00\n        /* \"#utility.yul\":1074:1076   */\n      0x20\n        /* \"#utility.yul\":1063:1072   */\n      dup3\n        /* \"#utility.yul\":1059:1077   */\n      add\n        /* \"#utility.yul\":1051:1077   */\n      swap1\n      pop\n        /* \"#utility.yul\":1123:1132   */\n      dup2\n        /* \"#utility.yul\":1117:1121   */\n      dup2\n        /* \"#utility.yul\":1113:1133   */\n      sub\n        /* \"#utility.yul\":1109:1110   */\n      0x00\n        /* \"#utility.yul\":1098:1107   */\n      dup4\n        /* \"#utility.yul\":1094:1111   */\n      add\n        /* \"#utility.yul\":1087:1134   */\n      mstore\n        /* \"#utility.yul\":1151:1229   */\n      tag_105\n        /* \"#utility.yul\":1224:1228   */\n      dup2\n        /* \"#utility.yul\":1215:1221   */\n      dup5\n        /* \"#utility.yul\":1151:1229   */\n      tag_61\n      jump\t// in\n    tag_105:\n        /* \"#utility.yul\":1143:1229   */\n      swap1\n      pop\n        /* \"#utility.yul\":923:1236   */\n      swap3\n      swap2\n      pop\n      pop\n      jump\t// out\n        /* \"#utility.yul\":1242:1319   */\n    tag_62:\n        /* \"#utility.yul\":1279:1286   */\n      0x00\n        /* \"#utility.yul\":1308:1313   */\n      dup2\n        /* \"#utility.yul\":1297:1313   */\n      swap1\n      pop\n        /* \"#utility.yul\":1242:1319   */\n      swap2\n      swap1\n      pop\n      jump\t// out\n        /* \"#utility.yul\":1325:1443   */\n    tag_63:\n        /* \"#utility.yul\":1412:1436   */\n      tag_108\n        /* \"#utility.yul\":1430:1435   */\n      dup2\n        /* \"#utility.yul\":1412:1436   */\n      tag_62\n      jump\t// in\n    tag_108:\n        /* \"#utility.yul\":1407:1410   */\n      dup3\n        /* \"#utility.yul\":1400:1437   */\n      mstore\n        /* \"#utility.yul\":1325:1443   */\n      pop\n      pop\n      jump\t// out\n        /* \"#utility.yul\":1449:1671   */\n    tag_19:\n        /* \"#utility.yul\":1542:1546   */\n      0x00\n        /* \"#utility.yul\":1580:1582   */\n      0x20\n        /* \"#utility.yul\":1569:1578   */\n      dup3\n        /* \"#utility.yul\":1565:1583   */\n      add\n        /* \"#utility.yul\":1557:1583   */\n      swap1\n      pop\n        /* \"#utility.yul\":1593:1664   */\n      tag_110\n        /* \"#utility.yul\":1661:1662   */\n      0x00\n        /* \"#utility.yul\":1650:1659   */\n      dup4\n        /* \"#utility.yul\":1646:1663   */\n      add\n        /* \"#utility.yul\":1637:1643   */\n      dup5\n        /* \"#utility.yul\":1593:1664   */\n      tag_63\n      jump\t// in\n    tag_110:\n        /* \"#utility.yul\":1449:1671   */\n      swap3\n      swap2\n      pop\n      pop\n      jump\t// out\n        /* \"#utility.yul\":1677:1752   */\n    tag_64:\n        /* \"#utility.yul\":1710:1716   */\n      0x00\n        /* \"#utility.yul\":1743:1745   */\n      0x40\n        /* \"#utility.yul\":1737:1746   */\n      mload\n        /* \"#utility.yul\":1727:1746   */\n      swap1\n      pop\n        /* \"#utility.yul\":1677:1752   */\n      swap1\n      jump\t// out\n        /* \"#utility.yul\":1758:1875   */\n    tag_65:\n        /* \"#utility.yul\":1867:1868   */\n      0x00\n        /* \"#utility.yul\":1864:1865   */\n      0x00\n        /* \"#utility.yul\":1857:1869   */\n      revert\n        /* \"#utility.yul\":1881:1998   */\n    tag_66:\n        /* \"#utility.yul\":1990:1991   */\n      0x00\n        /* \"#utility.yul\":1987:1988   */\n      0x00\n        /* \"#utility.yul\":1980:1992   */\n      revert\n        /* \"#utility.yul\":2004:2121   */\n    tag_67:\n        /* \"#utility.yul\":2113:2114   */\n      0x00\n        /* \"#utility.yul\":2110:2111   */\n      0x00\n        /* \"#utility.yul\":2103:2115   */\n      revert\n        /* \"#utility.yul\":2127:2244   */\n    tag_68:\n        /* \"#utility.yul\":2236:2237   */\n      0x00\n        /* \"#utility.yul\":2233:2234   */\n      0x00\n        /* \"#utility.yul\":2226:2238   */\n      revert\n        /* \"#utility.yul\":2250:2430   */\n    tag_69:\n        /* \"#utility.yul\":2298:2375   */\n      0x4e487b7100000000000000000000000000000000000000000000000000000000\n        /* \"#utility.yul\":2295:2296   */\n      0x00\n        /* \"#utility.yul\":2288:2376   */\n      mstore\n        /* \"#utility.yul\":2395:2399   */\n      0x41\n        /* \"#utility.yul\":2392:2393   */\n      0x04\n        /* \"#utility.yul\":2385:2400   */\n      mstore\n        /* \"#utility.yul\":2419:2423   */\n      0x24\n        /* \"#utility.yul\":2416:2417   */\n      0x00\n        /* \"#utility.yul\":2409:2424   */\n      revert\n        /* \"#utility.yul\":2436:2717   */\n    tag_70:\n        /* \"#utility.yul\":2519:2546   */\n      tag_118\n        /* \"#utility.yul\":2541:2545   */\n      dup3\n        /* \"#utility.yul\":2519:2546   */\n      tag_60\n      jump\t// in\n    tag_118:\n        /* \"#utility.yul\":2511:2517   */\n      dup2\n        /* \"#utility.yul\":2507:2547   */\n      add\n        /* \"#utility.yul\":2649:2655   */\n      dup2\n        /* \"#utility.yul\":2637:2647   */\n      dup2\n        /* \"#utility.yul\":2634:2656   */\n      lt\n        /* \"#utility.yul\":2613:2631   */\n      0xffffffffffffffff\n        /* \"#utility.yul\":2601:2611   */\n      dup3\n        /* \"#utility.yul\":2598:2632   */\n      gt\n        /* \"#utility.yul\":2595:2657   */\n      or\n        /* \"#utility.yul\":2592:2680   */\n      iszero\n      tag_119\n      jumpi\n        /* \"#utility.yul\":2660:2678   */\n      tag_120\n      tag_69\n      jump\t// in\n    tag_120:\n        /* \"#utility.yul\":2592:2680   */\n    tag_119:\n        /* \"#utility.yul\":2700:2710   */\n      dup1\n        /* \"#utility.yul\":2696:2698   */\n      0x40\n        /* \"#utility.yul\":2689:2711   */\n      mstore\n        /* \"#utility.yul\":2479:2717   */\n      pop\n        /* \"#utility.yul\":2436:2717   */\n      pop\n      pop\n      jump\t// out\n        /* \"#utility.yul\":2723:2852   */\n    tag_71:\n        /* \"#utility.yul\":2757:2763   */\n      0x00\n        /* \"#utility.yul\":2784:2804   */\n      tag_122\n      tag_64\n      jump\t// in\n    tag_122:\n        /* \"#utility.yul\":2774:2804   */\n      swap1\n      pop\n        /* \"#utility.yul\":2813:2846   */\n      tag_123\n        /* \"#utility.yul\":2841:2845   */\n      dup3\n        /* \"#utility.yul\":2833:2839   */\n      dup3\n        /* \"#utility.yul\":2813:2846   */\n      tag_70\n      jump\t// in\n    tag_123:\n        /* \"#utility.yul\":2723:2852   */\n      swap2\n      swap1\n      pop\n      jump\t// out\n        /* \"#utility.yul\":2858:3166   */\n    tag_72:\n        /* \"#utility.yul\":2920:2924   */\n      0x00\n        /* \"#utility.yul\":3010:3028   */\n      0xffffffffffffffff\n        /* \"#utility.yul\":3002:3008   */\n      dup3\n        /* \"#utility.yul\":2999:3029   */\n      gt\n        /* \"#utility.yul\":2996:3052   */\n      iszero\n      tag_125\n      jumpi\n        /* \"#utility.yul\":3032:3050   */\n      tag_126\n      tag_69\n      jump\t// in\n    tag_126:\n        /* \"#utility.yul\":2996:3052   */\n    tag_125:\n        /* \"#utility.yul\":3070:3099   */\n      tag_127\n        /* \"#utility.yul\":3092:3098   */\n      dup3\n        /* \"#utility.yul\":3070:3099   */\n      tag_60\n      jump\t// in\n    tag_127:\n        /* \"#utility.yul\":3062:3099   */\n      swap1\n      pop\n        /* \"#utility.yul\":3154:3158   */\n      0x20\n        /* \"#utility.yul\":3148:3152   */\n      dup2\n        /* \"#utility.yul\":3144:3159   */\n      add\n        /* \"#utility.yul\":3136:3159   */\n      swap1\n      pop\n        /* \"#utility.yul\":2858:3166   */\n      swap2\n      swap1\n      pop\n      jump\t// out\n        /* \"#utility.yul\":3172:3320   */\n    tag_73:\n        /* \"#utility.yul\":3270:3276   */\n      dup3\n        /* \"#utility.yul\":3265:3268   */\n      dup2\n        /* \"#utility.yul\":3260:3263   */\n      dup4\n        /* \"#utility.yul\":3247:3277   */\n      calldatacopy\n        /* \"#utility.yul\":3311:3312   */\n      0x00\n        /* \"#utility.yul\":3302:3308   */\n      dup4\n        /* \"#utility.yul\":3297:3300   */\n      dup4\n        /* \"#utility.yul\":3293:3309   */\n      add\n        /* \"#utility.yul\":3286:3313   */\n      mstore\n        /* \"#utility.yul\":3172:3320   */\n      pop\n      pop\n      pop\n      jump\t// out\n        /* \"#utility.yul\":3326:3751   */\n    tag_74:\n        /* \"#utility.yul\":3404:3409   */\n      0x00\n        /* \"#utility.yul\":3429:3495   */\n      tag_130\n        /* \"#utility.yul\":3445:3494   */\n      tag_131\n        /* \"#utility.yul\":3487:3493   */\n      dup5\n        /* \"#utility.yul\":3445:3494   */\n      tag_72\n      jump\t// in\n    tag_131:\n        /* \"#utility.yul\":3429:3495   */\n      tag_71\n      jump\t// in\n    tag_130:\n        /* \"#utility.yul\":3420:3495   */\n      swap1\n      pop\n        /* \"#utility.yul\":3518:3524   */\n      dup3\n        /* \"#utility.yul\":3511:3516   */\n      dup2\n        /* \"#utility.yul\":3504:3525   */\n      mstore\n        /* \"#utility.yul\":3556:3560   */\n      0x20\n        /* \"#utility.yul\":3549:3554   */\n      dup2\n        /* \"#utility.yul\":3545:3561   */\n      add\n        /* \"#utility.yul\":3594:3597   */\n      dup5\n        /* \"#utility.yul\":3585:3591   */\n      dup5\n        /* \"#utility.yul\":3580:3583   */\n      dup5\n        /* \"#utility.yul\":3576:3592   */\n      add\n        /* \"#utility.yul\":3573:3598   */\n      gt\n        /* \"#utility.yul\":3570:3682   */\n      iszero\n      tag_132\n      jumpi\n        /* \"#utility.yul\":3601:3680   */\n      tag_133\n      tag_68\n      jump\t// in\n    tag_133:\n        /* \"#utility.yul\":3570:3682   */\n    tag_132:\n        /* \"#utility.yul\":3691:3745   */\n      tag_134\n        /* \"#utility.yul\":3738:3744   */\n      dup5\n        /* \"#utility.yul\":3733:3736   */\n      dup3\n        /* \"#utility.yul\":3728:3731   */\n      dup6\n        /* \"#utility.yul\":3691:3745   */\n      tag_73\n      jump\t// in\n    tag_134:\n        /* \"#utility.yul\":3410:3751   */\n      pop\n        /* \"#utility.yul\":3326:3751   */\n      swap4\n      swap3\n      pop\n      pop\n      pop\n      jump\t// out\n        /* \"#utility.yul\":3771:4111   */\n    tag_75:\n        /* \"#utility.yul\":3827:3832   */\n      0x00\n        /* \"#utility.yul\":3876:3879   */\n      dup3\n        /* \"#utility.yul\":3869:3873   */\n      0x1f\n        /* \"#utility.yul\":3861:3867   */\n      dup4\n        /* \"#utility.yul\":3857:3874   */\n      add\n        /* \"#utility.yul\":3853:3880   */\n      slt\n        /* \"#utility.yul\":3843:3965   */\n      tag_136\n      jumpi\n        /* \"#utility.yul\":3884:3963   */\n      tag_137\n      tag_67\n      jump\t// in\n    tag_137:\n        /* \"#utility.yul\":3843:3965   */\n    tag_136:\n        /* \"#utility.yul\":4001:4007   */\n      dup2\n        /* \"#utility.yul\":3988:4008   */\n      calldataload\n        /* \"#utility.yul\":4026:4105   */\n      tag_138\n        /* \"#utility.yul\":4101:4104   */\n      dup5\n        /* \"#utility.yul\":4093:4099   */\n      dup3\n        /* \"#utility.yul\":4086:4090   */\n      0x20\n        /* \"#utility.yul\":4078:4084   */\n      dup7\n        /* \"#utility.yul\":4074:4091   */\n      add\n        /* \"#utility.yul\":4026:4105   */\n      tag_74\n      jump\t// in\n    tag_138:\n        /* \"#utility.yul\":4017:4105   */\n      swap2\n      pop\n        /* \"#utility.yul\":3833:4111   */\n      pop\n        /* \"#utility.yul\":3771:4111   */\n      swap3\n      swap2\n      pop\n      pop\n      jump\t// out\n        /* \"#utility.yul\":4117:4239   */\n    tag_76:\n        /* \"#utility.yul\":4190:4214   */\n      tag_140\n        /* \"#utility.yul\":4208:4213   */\n      dup2\n        /* \"#utility.yul\":4190:4214   */\n      tag_62\n      jump\t// in\n    tag_140:\n        /* \"#utility.yul\":4183:4188   */\n      dup2\n        /* \"#utility.yul\":4180:4215   */\n      eq\n        /* \"#utility.yul\":4170:4233   */\n      tag_141\n      jumpi\n        /* \"#utility.yul\":4229:4230   */\n      0x00\n        /* \"#utility.yul\":4226:4227   */\n      0x00\n        /* \"#utility.yul\":4219:4231   */\n      revert\n        /* \"#utility.yul\":4170:4233   */\n    tag_141:\n        /* \"#utility.yul\":4117:4239   */\n      pop\n      jump\t// out\n        /* \"#utility.yul\":4245:4384   */\n    tag_77:\n        /* \"#utility.yul\":4291:4296   */\n      0x00\n        /* \"#utility.yul\":4329:4335   */\n      dup2\n        /* \"#utility.yul\":4316:4336   */\n      calldataload\n        /* \"#utility.yul\":4307:4336   */\n      swap1\n      pop\n        /* \"#utility.yul\":4345:4378   */\n      tag_143\n        /* \"#utility.yul\":4372:4377   */\n      dup2\n        /* \"#utility.yul\":4345:4378   */\n      tag_76\n      jump\t// in\n    tag_143:\n        /* \"#utility.yul\":4245:4384   */\n      swap3\n      swap2\n      pop\n      pop\n      jump\t// out\n        /* \"#utility.yul\":4390:5369   */\n    tag_22:\n        /* \"#utility.yul\":4487:4493   */\n      0x00\n        /* \"#utility.yul\":4495:4501   */\n      0x00\n        /* \"#utility.yul\":4503:4509   */\n      0x00\n        /* \"#utility.yul\":4552:4554   */\n      0x60\n        /* \"#utility.yul\":4540:4549   */\n      dup5\n        /* \"#utility.yul\":4531:4538   */\n      dup7\n        /* \"#utility.yul\":4527:4550   */\n      sub\n        /* \"#utility.yul\":4523:4555   */\n      slt\n        /* \"#utility.yul\":4520:4639   */\n      iszero\n      tag_145\n      jumpi\n        /* \"#utility.yul\":4558:4637   */\n      tag_146\n      tag_65\n      jump\t// in\n    tag_146:\n        /* \"#utility.yul\":4520:4639   */\n    tag_145:\n        /* \"#utility.yul\":4706:4707   */\n      0x00\n        /* \"#utility.yul\":4695:4704   */\n      dup5\n        /* \"#utility.yul\":4691:4708   */\n      add\n        /* \"#utility.yul\":4678:4709   */\n      calldataload\n        /* \"#utility.yul\":4736:4754   */\n      0xffffffffffffffff\n        /* \"#utility.yul\":4728:4734   */\n      dup2\n        /* \"#utility.yul\":4725:4755   */\n      gt\n        /* \"#utility.yul\":4722:4839   */\n      iszero\n      tag_147\n      jumpi\n        /* \"#utility.yul\":4758:4837   */\n      tag_148\n      tag_66\n      jump\t// in\n    tag_148:\n        /* \"#utility.yul\":4722:4839   */\n    tag_147:\n        /* \"#utility.yul\":4863:4926   */\n      tag_149\n        /* \"#utility.yul\":4918:4925   */\n      dup7\n        /* \"#utility.yul\":4909:4915   */\n      dup3\n        /* \"#utility.yul\":4898:4907   */\n      dup8\n        /* \"#utility.yul\":4894:4916   */\n      add\n        /* \"#utility.yul\":4863:4926   */\n      tag_75\n      jump\t// in\n    tag_149:\n        /* \"#utility.yul\":4853:4926   */\n      swap4\n      pop\n        /* \"#utility.yul\":4649:4936   */\n      pop\n        /* \"#utility.yul\":5003:5005   */\n      0x20\n        /* \"#utility.yul\":4992:5001   */\n      dup5\n        /* \"#utility.yul\":4988:5006   */\n      add\n        /* \"#utility.yul\":4975:5007   */\n      calldataload\n        /* \"#utility.yul\":5034:5052   */\n      0xffffffffffffffff\n        /* \"#utility.yul\":5026:5032   */\n      dup2\n        /* \"#utility.yul\":5023:5053   */\n      gt\n        /* \"#utility.yul\":5020:5137   */\n      iszero\n      tag_150\n      jumpi\n        /* \"#utility.yul\":5056:5135   */\n      tag_151\n      tag_66\n      jump\t// in\n    tag_151:\n        /* \"#utility.yul\":5020:5137   */\n    tag_150:\n        /* \"#utility.yul\":5161:5224   */\n      tag_152\n        /* \"#utility.yul\":5216:5223   */\n      dup7\n        /* \"#utility.yul\":5207:5213   */\n      dup3\n        /* \"#utility.yul\":5196:5205   */\n      dup8\n        /* \"#utility.yul\":5192:5214   */\n      add\n        /* \"#utility.yul\":5161:5224   */\n      tag_75\n      jump\t// in\n    tag_152:\n        /* \"#utility.yul\":5151:5224   */\n      swap3\n      pop\n        /* \"#utility.yul\":4946:5234   */\n      pop\n        /* \"#utility.yul\":5273:5275   */\n      0x40\n        /* \"#utility.yul\":5299:5352   */\n      tag_153\n        /* \"#utility.yul\":5344:5351   */\n      dup7\n        /* \"#utility.yul\":5335:5341   */\n      dup3\n        /* \"#utility.yul\":5324:5333   */\n      dup8\n        /* \"#utility.yul\":5320:5342   */\n      add\n        /* \"#utility.yul\":5299:5352   */\n      tag_77\n      jump\t// in\n    tag_153:\n        /* \"#utility.yul\":5289:5352   */\n      swap2\n      pop\n        /* \"#utility.yul\":5244:5362   */\n      pop\n        /* \"#utility.yul\":4390:5369   */\n      swap3\n      pop\n      swap3\n      pop\n      swap3\n      jump\t// out\n        /* \"#utility.yul\":5375:5999   */\n    tag_27:\n        /* \"#utility.yul\":5564:5568   */\n      0x00\n        /* \"#utility.yul\":5602:5604   */\n      0x60\n        /* \"#utility.yul\":5591:5600   */\n      dup3\n        /* \"#utility.yul\":5587:5605   */\n      add\n        /* \"#utility.yul\":5579:5605   */\n      swap1\n      pop\n        /* \"#utility.yul\":5651:5660   */\n      dup2\n        /* \"#utility.yul\":5645:5649   */\n      dup2\n        /* \"#utility.yul\":5641:5661   */\n      sub\n        /* \"#utility.yul\":5637:5638   */\n      0x00\n        /* \"#utility.yul\":5626:5635   */\n      dup4\n        /* \"#utility.yul\":5622:5639   */\n      add\n        /* \"#utility.yul\":5615:5662   */\n      mstore\n        /* \"#utility.yul\":5679:5757   */\n      tag_155\n        /* \"#utility.yul\":5752:5756   */\n      dup2\n        /* \"#utility.yul\":5743:5749   */\n      dup7\n        /* \"#utility.yul\":5679:5757   */\n      tag_61\n      jump\t// in\n    tag_155:\n        /* \"#utility.yul\":5671:5757   */\n      swap1\n      pop\n        /* \"#utility.yul\":5804:5813   */\n      dup2\n        /* \"#utility.yul\":5798:5802   */\n      dup2\n        /* \"#utility.yul\":5794:5814   */\n      sub\n        /* \"#utility.yul\":5789:5791   */\n      0x20\n        /* \"#utility.yul\":5778:5787   */\n      dup4\n        /* \"#utility.yul\":5774:5792   */\n      add\n        /* \"#utility.yul\":5767:5815   */\n      mstore\n        /* \"#utility.yul\":5832:5910   */\n      tag_156\n        /* \"#utility.yul\":5905:5909   */\n      dup2\n        /* \"#utility.yul\":5896:5902   */\n      dup6\n        /* \"#utility.yul\":5832:5910   */\n      tag_61\n      jump\t// in\n    tag_156:\n        /* \"#utility.yul\":5824:5910   */\n      swap1\n      pop\n        /* \"#utility.yul\":5920:5992   */\n      tag_157\n        /* \"#utility.yul\":5988:5990   */\n      0x40\n        /* \"#utility.yul\":5977:5986   */\n      dup4\n        /* \"#utility.yul\":5973:5991   */\n      add\n        /* \"#utility.yul\":5964:5970   */\n      dup5\n        /* \"#utility.yul\":5920:5992   */\n      tag_63\n      jump\t// in\n    tag_157:\n        /* \"#utility.yul\":5375:5999   */\n      swap5\n      swap4\n      pop\n      pop\n      pop\n      pop\n      jump\t// out\n        /* \"#utility.yul\":6005:6185   */\n    tag_78:\n        /* \"#utility.yul\":6053:6130   */\n      0x4e487b7100000000000000000000000000000000000000000000000000000000\n        /* \"#utility.yul\":6050:6051   */\n      0x00\n        /* \"#utility.yul\":6043:6131   */\n      mstore\n        /* \"#utility.yul\":6150:6154   */\n      0x22\n        /* \"#utility.yul\":6147:6148   */\n      0x04\n        /* \"#utility.yul\":6140:6155   */\n      mstore\n        /* \"#utility.yul\":6174:6178   */\n      0x24\n        /* \"#utility.yul\":6171:6172   */\n      0x00\n        /* \"#utility.yul\":6164:6179   */\n      revert\n        /* \"#utility.yul\":6191:6511   */\n    tag_32:\n        /* \"#utility.yul\":6235:6241   */\n      0x00\n        /* \"#utility.yul\":6272:6273   */\n      0x02\n        /* \"#utility.yul\":6266:6270   */\n      dup3\n        /* \"#utility.yul\":6262:6274   */\n      div\n        /* \"#utility.yul\":6252:6274   */\n      swap1\n      pop\n        /* \"#utility.yul\":6319:6320   */\n      0x01\n        /* \"#utility.yul\":6313:6317   */\n      dup3\n        /* \"#utility.yul\":6309:6321   */\n      and\n        /* \"#utility.yul\":6340:6358   */\n      dup1\n        /* \"#utility.yul\":6330:6411   */\n      tag_160\n      jumpi\n        /* \"#utility.yul\":6396:6400   */\n      0x7f\n        /* \"#utility.yul\":6388:6394   */\n      dup3\n        /* \"#utility.yul\":6384:6401   */\n      and\n        /* \"#utility.yul\":6374:6401   */\n      swap2\n      pop\n        /* \"#utility.yul\":6330:6411   */\n    tag_160:\n        /* \"#utility.yul\":6458:6460   */\n      0x20\n        /* \"#utility.yul\":6450:6456   */\n      dup3\n        /* \"#utility.yul\":6447:6461   */\n      lt\n        /* \"#utility.yul\":6427:6445   */\n      dup2\n        /* \"#utility.yul\":6424:6462   */\n      sub\n        /* \"#utility.yul\":6421:6505   */\n      tag_161\n      jumpi\n        /* \"#utility.yul\":6477:6495   */\n      tag_162\n      tag_78\n      jump\t// in\n    tag_162:\n        /* \"#utility.yul\":6421:6505   */\n    tag_161:\n        /* \"#utility.yul\":6242:6511   */\n      pop\n        /* \"#utility.yul\":6191:6511   */\n      swap2\n      swap1\n      pop\n      jump\t// out\n        /* \"#utility.yul\":6517:6658   */\n    tag_79:\n        /* \"#utility.yul\":6566:6570   */\n      0x00\n        /* \"#utility.yul\":6589:6592   */\n      dup2\n        /* \"#utility.yul\":6581:6592   */\n      swap1\n      pop\n        /* \"#utility.yul\":6612:6615   */\n      dup2\n        /* \"#utility.yul\":6609:6610   */\n      0x00\n        /* \"#utility.yul\":6602:6616   */\n      mstore\n        /* \"#utility.yul\":6646:6650   */\n      0x20\n        /* \"#utility.yul\":6643:6644   */\n      0x00\n        /* \"#utility.yul\":6633:6651   */\n      keccak256\n        /* \"#utility.yul\":6625:6651   */\n      swap1\n      pop\n        /* \"#utility.yul\":6517:6658   */\n      swap2\n      swap1\n      pop\n      jump\t// out\n        /* \"#utility.yul\":6664:6757   */\n    tag_80:\n        /* \"#utility.yul\":6701:6707   */\n      0x00\n        /* \"#utility.yul\":6748:6750   */\n      0x20\n        /* \"#utility.yul\":6743:6745   */\n      0x1f\n        /* \"#utility.yul\":6736:6741   */\n      dup4\n        /* \"#utility.yul\":6732:6746   */\n      add\n        /* \"#utility.yul\":6728:6751   */\n      div\n        /* \"#utility.yul\":6718:6751   */\n      swap1\n      pop\n        /* \"#utility.yul\":6664:6757   */\n      swap2\n      swap1\n      pop\n      jump\t// out\n        /* \"#utility.yul\":6763:6870   */\n    tag_81:\n        /* \"#utility.yul\":6807:6815   */\n      0x00\n        /* \"#utility.yul\":6857:6862   */\n      dup3\n        /* \"#utility.yul\":6851:6855   */\n      dup3\n        /* \"#utility.yul\":6847:6863   */\n      shl\n        /* \"#utility.yul\":6826:6863   */\n      swap1\n      pop\n        /* \"#utility.yul\":6763:6870   */\n      swap3\n      swap2\n      pop\n      pop\n      jump\t// out\n        /* \"#utility.yul\":6876:7269   */\n    tag_82:\n        /* \"#utility.yul\":6945:6951   */\n      0x00\n        /* \"#utility.yul\":6995:6996   */\n      0x08\n        /* \"#utility.yul\":6983:6993   */\n      dup4\n        /* \"#utility.yul\":6979:6997   */\n      mul\n        /* \"#utility.yul\":7018:7115   */\n      tag_167\n        /* \"#utility.yul\":7048:7114   */\n      0xffffffffffffffffffffffffffffffffffffffffffffffffffffffffffffffff\n        /* \"#utility.yul\":7037:7046   */\n      dup3\n        /* \"#utility.yul\":7018:7115   */\n      tag_81\n      jump\t// in\n    tag_167:\n        /* \"#utility.yul\":7136:7175   */\n      tag_168\n        /* \"#utility.yul\":7166:7174   */\n      dup7\n        /* \"#utility.yul\":7155:7164   */\n      dup4\n        /* \"#utility.yul\":7136:7175   */\n      tag_81\n      jump\t// in\n    tag_168:\n        /* \"#utility.yul\":7124:7175   */\n      swap6\n      pop\n        /* \"#utility.yul\":7208:7212   */\n      dup1\n        /* \"#utility.yul\":7204:7213   */\n      not\n        /* \"#utility.yul\":7197:7202   */\n      dup5\n        /* \"#utility.yul\":7193:7214   */\n      and\n        /* \"#utility.yul\":7184:7214   */\n      swap4\n      pop\n        /* \"#utility.yul\":7257:7261   */\n      dup1\n        /* \"#utility.yul\":7247:7255   */\n      dup7\n        /* \"#utility.yul\":7243:7262   */\n      and\n        /* \"#utility.yul\":7236:7241   */\n      dup5\n        /* \"#utility.yul\":7233:7263   */\n      or\n        /* \"#utility.yul\":7223:7263   */\n      swap3\n      pop\n        /* \"#utility.yul\":6952:7269   */\n      pop\n      pop\n        /* \"#utility.yul\":6876:7269   */\n      swap4\n      swap3\n      pop\n      pop\n      pop\n      jump\t// out\n        /* \"#utility.yul\":7275:7335   */\n    tag_83:\n        /* \"#utility.yul\":7303:7306   */\n      0x00\n        /* \"#utility.yul\":7324:7329   */\n      dup2\n        /* \"#utility.yul\":7317:7329   */\n      swap1\n      pop\n        /* \"#utility.yul\":7275:7335   */\n      swap2\n      swap1\n      pop\n      jump\t// out\n        /* \"#utility.yul\":7341:7483   */\n    tag_84:\n        /* \"#utility.yul\":7391:7400   */\n      0x00\n        /* \"#utility.yul\":7424:7477   */\n      tag_171\n        /* \"#utility.yul\":7442:7476   */\n      tag_172\n        /* \"#utility.yul\":7451:7475   */\n      tag_173\n        /* \"#utility.yul\":7469:7474   */\n      dup5\n        /* \"#utility.yul\":7451:7475   */\n      tag_62\n      jump\t// in\n    tag_173:\n        /* \"#utility.yul\":7442:7476   */\n      tag_83\n      jump\t// in\n    tag_172:\n        /* \"#utility.yul\":7424:7477   */\n      tag_62\n      jump\t// in\n    tag_171:\n        /* \"#utility.yul\":7411:7477   */\n      swap1\n      pop\n        /* \"#utility.yul\":7341:7483   */\n      swap2\n      swap1\n      pop\n      jump\t// out\n        /* \"#utility.yul\":7489:7564   */\n    tag_85:\n        /* \"#utility.yul\":7532:7535   */\n      0x00\n        /* \"#utility.yul\":7553:7558   */\n      dup2\n        /* \"#utility.yul\":7546:7558   */\n      swap1\n      pop\n        /* \"#utility.yul\":7489:7564   */\n      swap2\n      swap1\n      pop\n      jump\t// out\n        /* \"#utility.yul\":7570:7839   */\n    tag_86:\n        /* \"#utility.yul\":7680:7719   */\n      tag_176\n        /* \"#utility.yul\":7711:7718   */\n      dup4\n        /* \"#utility.yul\":7680:7719   */\n      tag_84\n      jump\t// in\n    tag_176:\n        /* \"#utility.yul\":7741:7832   */\n      tag_177\n        /* \"#utility.yul\":7790:7831   */\n      tag_178\n        /* \"#utility.yul\":7814:7830   */\n      dup3\n        /* \"#utility.yul\":7790:7831   */\n      tag_85\n      jump\t// in\n    tag_178:\n        /* \"#utility.yul\":7782:7788   */\n      dup5\n        /* \"#utility.yul\":7775:7779   */\n      dup5\n        /* \"#utility.yul\":7769:7780   */\n      sload\n        /* \"#utility.yul\":7741:7832   */\n      tag_82\n      jump\t// in\n    tag_177:\n        /* \"#utility.yul\":7735:7739   */\n      dup3\n        /* \"#utility.yul\":7728:7833   */\n      sstore\n        /* \"#utility.yul\":7646:7839   */\n      pop\n        /* \"#utility.yul\":7570:7839   */\n      pop\n      pop\n      pop\n      jump\t// out\n        /* \"#utility.yul\":7845:7918   */\n    tag_87:\n        /* \"#utility.yul\":7890:7893   */\n      0x00\n        /* \"#utility.yul\":7911:7912   */\n      0x00\n        /* \"#utility.yul\":7904:7912   */\n      swap1\n      pop\n        /* \"#utility.yul\":7845:7918   */\n      swap1\n      jump\t// out\n        /* \"#utility.yul\":7924:8113   */\n    tag_88:\n        /* \"#utility.yul\":8001:8033   */\n      tag_181\n      tag_87\n      jump\t// in\n    tag_181:\n        /* \"#utility.yul\":8042:8107   */\n      tag_182\n        /* \"#utility.yul\":8100:8106   */\n      dup2\n        /* \"#utility.yul\":8092:8098   */\n      dup5\n        /* \"#utility.yul\":8086:8090   */\n      dup5\n        /* \"#utility.yul\":8042:8107   */\n      tag_86\n      jump\t// in\n    tag_182:\n        /* \"#utility.yul\":7977:8113   */\n      pop\n        /* \"#utility.yul\":7924:8113   */\n      pop\n      pop\n      jump\t// out\n        /* \"#utility.yul\":8119:8305   */\n    tag_89:\n        /* \"#utility.yul\":8179:8299   */\n    tag_184:\n        /* \"#utility.yul\":8196:8199   */\n      dup2\n        /* \"#utility.yul\":8189:8194   */\n      dup2\n        /* \"#utility.yul\":8186:8200   */\n      lt\n        /* \"#utility.yul\":8179:8299   */\n      iszero\n      tag_186\n      jumpi\n        /* \"#utility.yul\":8250:8289   */\n      tag_187\n        /* \"#utility.yul\":8287:8288   */\n      0x00\n        /* \"#utility.yul\":8280:8285   */\n      dup3\n        /* \"#utility.yul\":8250:8289   */\n      tag_88\n      jump\t// in\n    tag_187:\n        /* \"#utility.yul\":8223:8224   */\n      0x01\n        /* \"#utility.yul\":8216:8221   */\n      dup2\n        /* \"#utility.yul\":8212:8225   */\n      add\n        /* \"#utility.yul\":8203:8225   */\n      swap1\n      pop\n        /* \"#utility.yul\":8179:8299   */\n      jump(tag_184)\n    tag_186:\n        /* \"#utility.yul\":8119:8305   */\n      pop\n      pop\n      jump\t// out\n        /* \"#utility.yul\":8311:8854   */\n    tag_90:\n        /* \"#utility.yul\":8412:8414   */\n      0x1f\n        /* \"#utility.yul\":8407:8410   */\n      dup3\n        /* \"#utility.yul\":8404:8415   */\n      gt\n        /* \"#utility.yul\":8401:8847   */\n      iszero\n      tag_189\n      jumpi\n        /* \"#utility.yul\":8446:8484   */\n      tag_190\n        /* \"#utility.yul\":8478:8483   */\n      dup2\n        /* \"#utility.yul\":8446:8484   */\n      tag_79\n      jump\t// in\n    tag_190:\n        /* \"#utility.yul\":8530:8559   */\n      tag_191\n        /* \"#utility.yul\":8548:8558   */\n      dup5\n        /* \"#utility.yul\":8530:8559   */\n      tag_80\n      jump\t// in\n    tag_191:\n        /* \"#utility.yul\":8520:8528   */\n      dup2\n        /* \"#utility.yul\":8516:8560   */\n      add\n        /* \"#utility.yul\":8713:8715   */\n      0x20\n        /* \"#utility.yul\":8701:8711   */\n      dup6\n        /* \"#utility.yul\":8698:8716   */\n      lt\n        /* \"#utility.yul\":8695:8744   */\n      iszero\n      tag_192\n      jumpi\n        /* \"#utility.yul\":8734:8742   */\n      dup2\n        /* \"#utility.yul\":8719:8742   */\n      swap1\n      pop\n        /* \"#utility.yul\":8695:8744   */\n    tag_192:\n        /* \"#utility.yul\":8757:8837   */\n      tag_193\n        /* \"#utility.yul\":8813:8835   */\n      tag_194\n        /* \"#utility.yul\":8831:8834   */\n      dup6\n        /* \"#utility.yul\":8813:8835   */\n      tag_80\n      jump\t// in\n    tag_194:\n        /* \"#utility.yul\":8803:8811   */\n      dup4\n        /* \"#utility.yul\":8799:8836   */\n      add\n        /* \"#utility.yul\":8786:8797   */\n      dup3\n        /* \"#utility.yul\":8757:8837   */\n      tag_89\n      jump\t// in\n    tag_193:\n        /* \"#utility.yul\":8416:8847   */\n      pop\n      pop\n        /* \"#utility.yul\":8401:8847   */\n    tag_189:\n        /* \"#utility.yul\":8311:8854   */\n      pop\n      pop\n      pop\n      jump\t// out\n        /* \"#utility.yul\":8860:8977   */\n    tag_91:\n        /* \"#utility.yul\":8914:8922   */\n      0x00\n        /* \"#utility.yul\":8964:8969   */\n      dup3\n        /* \"#utility.yul\":8958:8962   */\n      dup3\n        /* \"#utility.yul\":8954:8970   */\n      shr\n        /* \"#utility.yul\":8933:8970   */\n      swap1\n      pop\n        /* \"#utility.yul\":8860:8977   */\n      swap3\n      swap2\n      pop\n      pop\n      jump\t// out\n        /* \"#utility.yul\":8983:9152   */\n    tag_92:\n        /* \"#utility.yul\":9027:9033   */\n      0x00\n        /* \"#utility.yul\":9060:9111   */\n      tag_197\n        /* \"#utility.yul\":9108:9109   */\n      0x00\n        /* \"#utility.yul\":9104:9110   */\n      not\n        /* \"#utility.yul\":9096:9101   */\n      dup5\n        /* \"#utility.yul\":9093:9094   */\n      0x08\n        /* \"#utility.yul\":9089:9102   */\n      mul\n        /* \"#utility.yul\":9060:9111   */\n      tag_91\n      jump\t// in\n    tag_197:\n        /* \"#utility.yul\":9056:9112   */\n      not\n        /* \"#utility.yul\":9141:9145   */\n      dup1\n        /* \"#utility.yul\":9135:9139   */\n      dup4\n        /* \"#utility.yul\":9131:9146   */\n      and\n        /* \"#utility.yul\":9121:9146   */\n      swap2\n      pop\n        /* \"#utility.yul\":9034:9152   */\n      pop\n        /* \"#utility.yul\":8983:9152   */\n      swap3\n      swap2\n      pop\n      pop\n      jump\t// out\n        /* \"#utility.yul\":9157:9452   */\n    tag_93:\n        /* \"#utility.yul\":9233:9237   */\n      0x00\n        /* \"#utility.yul\":9379:9408   */\n      tag_199\n        /* \"#utility.yul\":9404:9407   */\n      dup4\n        /* \"#utility.yul\":9398:9402   */\n      dup4\n        /* \"#utility.yul\":9379:9408   */\n      tag_92\n      jump\t// in\n    tag_199:\n        /* \"#utility.yul\":9371:9408   */\n      swap2\n      pop\n        /* \"#utility.yul\":9441:9444   */\n      dup3\n        /* \"#utility.yul\":9438:9439   */\n      0x02\n        /* \"#utility.yul\":9434:9445   */\n      mul\n        /* \"#utility.yul\":9428:9432   */\n      dup3\n        /* \"#utility.yul\":9425:9446   */\n      or\n        /* \"#utility.yul\":9417:9446   */\n      swap1\n      pop\n        /* \"#utility.yul\":9157:9452   */\n      swap3\n      swap2\n      pop\n      pop\n      jump\t// out\n        /* \"#utility.yul\":9457:10852   */\n    tag_44:\n        /* \"#utility.yul\":9574:9611   */\n      tag_201\n        /* \"#utility.yul\":9607:9610   */\n      dup3\n        /* \"#utility.yul\":9574:9611   */\n      tag_57\n      jump\t// in\n    tag_201:\n        /* \"#utility.yul\":9676:9694   */\n      0xffffffffffffffff\n        /* \"#utility.yul\":9668:9674   */\n      dup2\n        /* \"#utility.yul\":9665:9695   */\n      gt\n        /* \"#utility.yul\":9662:9718   */\n      iszero\n      tag_202\n      jumpi\n        /* \"#utility.yul\":9698:9716   */\n      tag_203\n      tag_69\n      jump\t// in\n    tag_203:\n        /* \"#utility.yul\":9662:9718   */\n    tag_202:\n        /* \"#utility.yul\":9742:9780   */\n      tag_204\n        /* \"#utility.yul\":9774:9778   */\n      dup3\n        /* \"#utility.yul\":9768:9779   */\n      sload\n        /* \"#utility.yul\":9742:9780   */\n      tag_32\n      jump\t// in\n    tag_204:\n        /* \"#utility.yul\":9827:9894   */\n      tag_205\n        /* \"#utility.yul\":9887:9893   */\n      dup3\n        /* \"#utility.yul\":9879:9885   */\n      dup3\n        /* \"#utility.yul\":9873:9877   */\n      dup6\n        /* \"#utility.yul\":9827:9894   */\n      tag_90\n      jump\t// in\n    tag_205:\n        /* \"#utility.yul\":9921:9922   */\n      0x00\n        /* \"#utility.yul\":9945:9949   */\n      0x20\n        /* \"#utility.yul\":9932:9949   */\n      swap1\n      pop\n        /* \"#utility.yul\":9977:9979   */\n      0x1f\n        /* \"#utility.yul\":9969:9975   */\n      dup4\n        /* \"#utility.yul\":9966:9980   */\n      gt\n        /* \"#utility.yul\":9994:9995   */\n      0x01\n        /* \"#utility.yul\":9989:10607   */\n      dup2\n      eq\n      tag_207\n      jumpi\n        /* \"#utility.yul\":10651:10652   */\n      0x00\n        /* \"#utility.yul\":10668:10674   */\n      dup5\n        /* \"#utility.yul\":10665:10742   */\n      iszero\n      tag_208\n      jumpi\n        /* \"#utility.yul\":10717:10726   */\n      dup3\n        /* \"#utility.yul\":10712:10715   */\n      dup8\n        /* \"#utility.yul\":10708:10727   */\n      add\n        /* \"#utility.yul\":10702:10728   */\n      mload\n        /* \"#utility.yul\":10693:10728   */\n      swap1\n      pop\n        /* \"#utility.yul\":10665:10742   */\n    tag_208:\n        /* \"#utility.yul\":10768:10835   */\n      tag_209\n        /* \"#utility.yul\":10828:10834   */\n      dup6\n        /* \"#utility.yul\":10821:10826   */\n      dup3\n        /* \"#utility.yul\":10768:10835   */\n      tag_93\n      jump\t// in\n    tag_209:\n        /* \"#utility.yul\":10762:10766   */\n      dup7\n        /* \"#utility.yul\":10755:10836   */\n      sstore\n        /* \"#utility.yul\":10624:10846   */\n      pop\n        /* \"#utility.yul\":9959:10846   */\n      jump(tag_206)\n        /* \"#utility.yul\":9989:10607   */\n    tag_207:\n        /* \"#utility.yul\":10041:10045   */\n      0x1f\n        /* \"#utility.yul\":10037:10046   */\n      not\n        /* \"#utility.yul\":10029:10035   */\n      dup5\n        /* \"#utility.yul\":10025:10047   */\n      and\n        /* \"#utility.yul\":10075:10112   */\n      tag_210\n        /* \"#utility.yul\":10107:10111   */\n      dup7\n        /* \"#utility.yul\":10075:10112   */\n      tag_79\n      jump\t// in\n    tag_210:\n        /* \"#utility.yul\":10134:10135   */\n      0x00\n        /* \"#utility.yul\":10148:10356   */\n    tag_211:\n        /* \"#utility.yul\":10162:10169   */\n      dup3\n        /* \"#utility.yul\":10159:10160   */\n      dup2\n        /* \"#utility.yul\":10156:10170   */\n      lt\n        /* \"#utility.yul\":10148:10356   */\n      iszero\n      tag_213\n      jumpi\n        /* \"#utility.yul\":10241:10250   */\n      dup5\n        /* \"#utility.yul\":10236:10239   */\n      dup10\n        /* \"#utility.yul\":10232:10251   */\n      add\n        /* \"#utility.yul\":10226:10252   */\n      mload\n        /* \"#utility.yul\":10218:10224   */\n      dup3\n        /* \"#utility.yul\":10211:10253   */\n      sstore\n        /* \"#utility.yul\":10292:10293   */\n      0x01\n        /* \"#utility.yul\":10284:10290   */\n      dup3\n        /* \"#utility.yul\":10280:10294   */\n      add\n        /* \"#utility.yul\":10270:10294   */\n      swap2\n      pop\n        /* \"#utility.yul\":10339:10341   */\n      0x20\n        /* \"#utility.yul\":10328:10337   */\n      dup6\n        /* \"#utility.yul\":10324:10342   */\n      add\n        /* \"#utility.yul\":10311:10342   */\n      swap5\n      pop\n        /* \"#utility.yul\":10185:10189   */\n      0x20\n        /* \"#utility.yul\":10182:10183   */\n      dup2\n        /* \"#utility.yul\":10178:10190   */\n      add\n        /* \"#utility.yul\":10173:10190   */\n      swap1\n      pop\n        /* \"#utility.yul\":10148:10356   */\n      jump(tag_211)\n    tag_213:\n        /* \"#utility.yul\":10384:10390   */\n      dup7\n        /* \"#utility.yul\":10375:10382   */\n      dup4\n        /* \"#utility.yul\":10372:10391   */\n      lt\n        /* \"#utility.yul\":10369:10548   */\n      iszero\n      tag_214\n      jumpi\n        /* \"#utility.yul\":10442:10451   */\n      dup5\n        /* \"#utility.yul\":10437:10440   */\n      dup10\n        /* \"#utility.yul\":10433:10452   */\n      add\n        /* \"#utility.yul\":10427:10453   */\n      mload\n        /* \"#utility.yul\":10485:10533   */\n      tag_215\n        /* \"#utility.yul\":10527:10531   */\n      0x1f\n        /* \"#utility.yul\":10519:10525   */\n      dup10\n        /* \"#utility.yul\":10515:10532   */\n      and\n        /* \"#utility.yul\":10504:10513   */\n      dup3\n        /* \"#utility.yul\":10485:10533   */\n      tag_92\n      jump\t// in\n    tag_215:\n        /* \"#utility.yul\":10477:10483   */\n      dup4\n        /* \"#utility.yul\":10470:10534   */\n      sstore\n        /* \"#utility.yul\":10392:10548   */\n      pop\n        /* \"#utility.yul\":10369:10548   */\n    tag_214:\n        /* \"#utility.yul\":10594:10595   */\n      0x01\n        /* \"#utility.yul\":10590:10591   */\n      0x02\n        /* \"#utility.yul\":10582:10588   */\n      dup9\n        /* \"#utility.yul\":10578:10592   */\n      mul\n        /* \"#utility.yul\":10574:10596   */\n      add\n        /* \"#utility.yul\":10568:10572   */\n      dup9\n        /* \"#utility.yul\":10561:10597   */\n      sstore\n        /* \"#utility.yul\":9996:10607   */\n      pop\n      pop\n      pop\n        /* \"#utility.yul\":9959:10846   */\n    tag_206:\n      pop\n        /* \"#utility.yul\":9549:10852   */\n      pop\n      pop\n      pop\n        /* \"#utility.yul\":9457:10852   */\n      pop\n      pop\n      jump\t// out\n\n    auxdata: 0xa26469706673582212200d6ab904a212f3025c4956440d1ce749b318166477a174c8b95b3074f9f62b9664736f6c634300081c0033\n}\n",
				"bytecode": {
					"linkReferences": {},
					"object": "60806040526040518060400160405280600981526020017f4e657665726d696e640000000000000000000000000000000000000000000000815250600190816100489190610328565b50348015610054575f5ffd5b506040518060400160405280600781526020017f4e697276616e61000000000000000000000000000000000000000000000000008152505f90816100989190610328565b506040518060400160405280600981526020017f4e657665726d696e640000000000000000000000000000000000000000000000815250600190816100dd9190610328565b50600d6002819055506103f7565b5f81519050919050565b7f4e487b71000000000000000000000000000000000000000000000000000000005f52604160045260245ffd5b7f4e487b71000000000000000000000000000000000000000000000000000000005f52602260045260245ffd5b5f600282049050600182168061016657607f821691505b60208210810361017957610178610122565b5b50919050565b5f819050815f5260205f209050919050565b5f6020601f8301049050919050565b5f82821b905092915050565b5f600883026101db7fffffffffffffffffffffffffffffffffffffffffffffffffffffffffffffffff826101a0565b6101e586836101a0565b95508019841693508086168417925050509392505050565b5f819050919050565b5f819050919050565b5f61022961022461021f846101fd565b610206565b6101fd565b9050919050565b5f819050919050565b6102428361020f565b61025661024e82610230565b8484546101ac565b825550505050565b5f5f905090565b61026d61025e565b610278818484610239565b505050565b5b8181101561029b576102905f82610265565b60018101905061027e565b5050565b601f8211156102e0576102b18161017f565b6102ba84610191565b810160208510156102c9578190505b6102dd6102d585610191565b83018261027d565b50505b505050565b5f82821c905092915050565b5f6103005f19846008026102e5565b1980831691505092915050565b5f61031883836102f1565b9150826002028217905092915050565b610331826100eb565b67ffffffffffffffff81111561034a576103496100f5565b5b610354825461014f565b61035f82828561029f565b5f60209050601f831160018114610390575f841561037e578287015190505b610388858261030d565b8655506103ef565b601f19841661039e8661017f565b5f5b828110156103c5578489015182556001820191506020850194506020810190506103a0565b868310156103e257848901516103de601f8916826102f1565b8355505b6001600288020188555050505b505050505050565b6109b7806104045f395ff3fe608060405234801561000f575f5ffd5b5060043610610060575f3560e01c80631fe5726c1461006457806343bc161214610082578063623118e6146100a05780638a48ca41146100be578063d3c783f4146100da578063dc9e0a71146100fa575b5f5ffd5b61006c610118565b6040516100799190610432565b60405180910390f35b61008a6101a4565b6040516100979190610432565b60405180910390f35b6100a861022f565b6040516100b5919061046a565b60405180910390f35b6100d860048036038101906100d391906105ea565b610235565b005b6100e2610260565b6040516100f193929190610672565b60405180910390f35b610102610389565b60405161010f9190610432565b60405180910390f35b60018054610125906106e2565b80601f0160208091040260200160405190810160405280929190818152602001828054610151906106e2565b801561019c5780601f106101735761010080835404028352916020019161019c565b820191905f5260205f20905b81548152906001019060200180831161017f57829003601f168201915b505050505081565b5f80546101b0906106e2565b80601f01602080910402602001604051908101604052809291908181526020018280546101dc906106e2565b80156102275780601f106101fe57610100808354040283529160200191610227565b820191905f5260205f20905b81548152906001019060200180831161020a57829003601f168201915b505050505081565b60025481565b825f908161024391906108b2565b50816001908161025391906108b2565b5080600281905550505050565b6060805f5f6001600254828054610276906106e2565b80601f01602080910402602001604051908101604052809291908181526020018280546102a2906106e2565b80156102ed5780601f106102c4576101008083540402835291602001916102ed565b820191905f5260205f20905b8154815290600101906020018083116102d057829003601f168201915b50505050509250818054610300906106e2565b80601f016020809104026020016040519081016040528092919081815260200182805461032c906106e2565b80156103775780601f1061034e57610100808354040283529160200191610377565b820191905f5260205f20905b81548152906001019060200180831161035a57829003601f168201915b50505050509150925092509250909192565b6040518060400160405280600b81526020017f4b7269732042656e6e657400000000000000000000000000000000000000000081525081565b5f81519050919050565b5f82825260208201905092915050565b8281835e5f83830152505050565b5f601f19601f8301169050919050565b5f610404826103c2565b61040e81856103cc565b935061041e8185602086016103dc565b610427816103ea565b840191505092915050565b5f6020820190508181035f83015261044a81846103fa565b905092915050565b5f819050919050565b61046481610452565b82525050565b5f60208201905061047d5f83018461045b565b92915050565b5f604051905090565b5f5ffd5b5f5ffd5b5f5ffd5b5f5ffd5b7f4e487b71000000000000000000000000000000000000000000000000000000005f52604160045260245ffd5b6104d2826103ea565b810181811067ffffffffffffffff821117156104f1576104f061049c565b5b80604052505050565b5f610503610483565b905061050f82826104c9565b919050565b5f67ffffffffffffffff82111561052e5761052d61049c565b5b610537826103ea565b9050602081019050919050565b828183375f83830152505050565b5f61056461055f84610514565b6104fa565b9050828152602081018484840111156105805761057f610498565b5b61058b848285610544565b509392505050565b5f82601f8301126105a7576105a6610494565b5b81356105b7848260208601610552565b91505092915050565b6105c981610452565b81146105d3575f5ffd5b50565b5f813590506105e4816105c0565b92915050565b5f5f5f606084860312156106015761060061048c565b5b5f84013567ffffffffffffffff81111561061e5761061d610490565b5b61062a86828701610593565b935050602084013567ffffffffffffffff81111561064b5761064a610490565b5b61065786828701610593565b9250506040610668868287016105d6565b9150509250925092565b5f6060820190508181035f83015261068a81866103fa565b9050818103602083015261069e81856103fa565b90506106ad604083018461045b565b949350505050565b7f4e487b71000000000000000000000000000000000000000000000000000000005f52602260045260245ffd5b5f60028204905060018216806106f957607f821691505b60208210810361070c5761070b6106b5565b5b50919050565b5f819050815f5260205f209050919050565b5f6020601f8301049050919050565b5f82821b905092915050565b5f6008830261076e7fffffffffffffffffffffffffffffffffffffffffffffffffffffffffffffffff82610733565b6107788683610733565b95508019841693508086168417925050509392505050565b5f819050919050565b5f6107b36107ae6107a984610452565b610790565b610452565b9050919050565b5f819050919050565b6107cc83610799565b6107e06107d8826107ba565b84845461073f565b825550505050565b5f5f905090565b6107f76107e8565b6108028184846107c3565b505050565b5b818110156108255761081a5f826107ef565b600181019050610808565b5050565b601f82111561086a5761083b81610712565b61084484610724565b81016020851015610853578190505b61086761085f85610724565b830182610807565b50505b505050565b5f82821c905092915050565b5f61088a5f198460080261086f565b1980831691505092915050565b5f6108a2838361087b565b9150826002028217905092915050565b6108bb826103c2565b67ffffffffffffffff8111156108d4576108d361049c565b5b6108de82546106e2565b6108e9828285610829565b5f60209050601f83116001811461091a575f8415610908578287015190505b6109128582610897565b865550610979565b601f19841661092886610712565b5f5b8281101561094f5784890151825560018201915060208501945060208101905061092a565b8683101561096c5784890151610968601f89168261087b565b8355505b6001600288020188555050505b50505050505056fea26469706673582212200d6ab904a212f3025c4956440d1ce749b318166477a174c8b95b3074f9f62b9664736f6c634300081c0033",
					"opcodes": "PUSH1 0x80 PUSH1 0x40 MSTORE PUSH1 0x40 MLOAD DUP1 PUSH1 0x40 ADD PUSH1 0x40 MSTORE DUP1 PUSH1 0x9 DUP2 MSTORE PUSH1 0x20 ADD PUSH32 0x4E657665726D696E640000000000000000000000000000000000000000000000 DUP2 MSTORE POP PUSH1 0x1 SWAP1 DUP2 PUSH2 0x48 SWAP2 SWAP1 PUSH2 0x328 JUMP JUMPDEST POP CALLVALUE DUP1 ISZERO PUSH2 0x54 JUMPI PUSH0 PUSH0 REVERT JUMPDEST POP PUSH1 0x40 MLOAD DUP1 PUSH1 0x40 ADD PUSH1 0x40 MSTORE DUP1 PUSH1 0x7 DUP2 MSTORE PUSH1 0x20 ADD PUSH32 0x4E697276616E6100000000000000000000000000000000000000000000000000 DUP2 MSTORE POP PUSH0 SWAP1 DUP2 PUSH2 0x98 SWAP2 SWAP1 PUSH2 0x328 JUMP JUMPDEST POP PUSH1 0x40 MLOAD DUP1 PUSH1 0x40 ADD PUSH1 0x40 MSTORE DUP1 PUSH1 0x9 DUP2 MSTORE PUSH1 0x20 ADD PUSH32 0x4E657665726D696E640000000000000000000000000000000000000000000000 DUP2 MSTORE POP PUSH1 0x1 SWAP1 DUP2 PUSH2 0xDD SWAP2 SWAP1 PUSH2 0x328 JUMP JUMPDEST POP PUSH1 0xD PUSH1 0x2 DUP2 SWAP1 SSTORE POP PUSH2 0x3F7 JUMP JUMPDEST PUSH0 DUP2 MLOAD SWAP1 POP SWAP2 SWAP1 POP JUMP JUMPDEST PUSH32 0x4E487B7100000000000000000000000000000000000000000000000000000000 PUSH0 MSTORE PUSH1 0x41 PUSH1 0x4 MSTORE PUSH1 0x24 PUSH0 REVERT JUMPDEST PUSH32 0x4E487B7100000000000000000000000000000000000000000000000000000000 PUSH0 MSTORE PUSH1 0x22 PUSH1 0x4 MSTORE PUSH1 0x24 PUSH0 REVERT JUMPDEST PUSH0 PUSH1 0x2 DUP3 DIV SWAP1 POP PUSH1 0x1 DUP3 AND DUP1 PUSH2 0x166 JUMPI PUSH1 0x7F DUP3 AND SWAP2 POP JUMPDEST PUSH1 0x20 DUP3 LT DUP2 SUB PUSH2 0x179 JUMPI PUSH2 0x178 PUSH2 0x122 JUMP JUMPDEST JUMPDEST POP SWAP2 SWAP1 POP JUMP JUMPDEST PUSH0 DUP2 SWAP1 POP DUP2 PUSH0 MSTORE PUSH1 0x20 PUSH0 KECCAK256 SWAP1 POP SWAP2 SWAP1 POP JUMP JUMPDEST PUSH0 PUSH1 0x20 PUSH1 0x1F DUP4 ADD DIV SWAP1 POP SWAP2 SWAP1 POP JUMP JUMPDEST PUSH0 DUP3 DUP3 SHL SWAP1 POP SWAP3 SWAP2 POP POP JUMP JUMPDEST PUSH0 PUSH1 0x8 DUP4 MUL PUSH2 0x1DB PUSH32 0xFFFFFFFFFFFFFFFFFFFFFFFFFFFFFFFFFFFFFFFFFFFFFFFFFFFFFFFFFFFFFFFF DUP3 PUSH2 0x1A0 JUMP JUMPDEST PUSH2 0x1E5 DUP7 DUP4 PUSH2 0x1A0 JUMP JUMPDEST SWAP6 POP DUP1 NOT DUP5 AND SWAP4 POP DUP1 DUP7 AND DUP5 OR SWAP3 POP POP POP SWAP4 SWAP3 POP POP POP JUMP JUMPDEST PUSH0 DUP2 SWAP1 POP SWAP2 SWAP1 POP JUMP JUMPDEST PUSH0 DUP2 SWAP1 POP SWAP2 SWAP1 POP JUMP JUMPDEST PUSH0 PUSH2 0x229 PUSH2 0x224 PUSH2 0x21F DUP5 PUSH2 0x1FD JUMP JUMPDEST PUSH2 0x206 JUMP JUMPDEST PUSH2 0x1FD JUMP JUMPDEST SWAP1 POP SWAP2 SWAP1 POP JUMP JUMPDEST PUSH0 DUP2 SWAP1 POP SWAP2 SWAP1 POP JUMP JUMPDEST PUSH2 0x242 DUP4 PUSH2 0x20F JUMP JUMPDEST PUSH2 0x256 PUSH2 0x24E DUP3 PUSH2 0x230 JUMP JUMPDEST DUP5 DUP5 SLOAD PUSH2 0x1AC JUMP JUMPDEST DUP3 SSTORE POP POP POP POP JUMP JUMPDEST PUSH0 PUSH0 SWAP1 POP SWAP1 JUMP JUMPDEST PUSH2 0x26D PUSH2 0x25E JUMP JUMPDEST PUSH2 0x278 DUP2 DUP5 DUP5 PUSH2 0x239 JUMP JUMPDEST POP POP POP JUMP JUMPDEST JUMPDEST DUP2 DUP2 LT ISZERO PUSH2 0x29B JUMPI PUSH2 0x290 PUSH0 DUP3 PUSH2 0x265 JUMP JUMPDEST PUSH1 0x1 DUP2 ADD SWAP1 POP PUSH2 0x27E JUMP JUMPDEST POP POP JUMP JUMPDEST PUSH1 0x1F DUP3 GT ISZERO PUSH2 0x2E0 JUMPI PUSH2 0x2B1 DUP2 PUSH2 0x17F JUMP JUMPDEST PUSH2 0x2BA DUP5 PUSH2 0x191 JUMP JUMPDEST DUP2 ADD PUSH1 0x20 DUP6 LT ISZERO PUSH2 0x2C9 JUMPI DUP2 SWAP1 POP JUMPDEST PUSH2 0x2DD PUSH2 0x2D5 DUP6 PUSH2 0x191 JUMP JUMPDEST DUP4 ADD DUP3 PUSH2 0x27D JUMP JUMPDEST POP POP JUMPDEST POP POP POP JUMP JUMPDEST PUSH0 DUP3 DUP3 SHR SWAP1 POP SWAP3 SWAP2 POP POP JUMP JUMPDEST PUSH0 PUSH2 0x300 PUSH0 NOT DUP5 PUSH1 0x8 MUL PUSH2 0x2E5 JUMP JUMPDEST NOT DUP1 DUP4 AND SWAP2 POP POP SWAP3 SWAP2 POP POP JUMP JUMPDEST PUSH0 PUSH2 0x318 DUP4 DUP4 PUSH2 0x2F1 JUMP JUMPDEST SWAP2 POP DUP3 PUSH1 0x2 MUL DUP3 OR SWAP1 POP SWAP3 SWAP2 POP POP JUMP JUMPDEST PUSH2 0x331 DUP3 PUSH2 0xEB JUMP JUMPDEST PUSH8 0xFFFFFFFFFFFFFFFF DUP2 GT ISZERO PUSH2 0x34A JUMPI PUSH2 0x349 PUSH2 0xF5 JUMP JUMPDEST JUMPDEST PUSH2 0x354 DUP3 SLOAD PUSH2 0x14F JUMP JUMPDEST PUSH2 0x35F DUP3 DUP3 DUP6 PUSH2 0x29F JUMP JUMPDEST PUSH0 PUSH1 0x20 SWAP1 POP PUSH1 0x1F DUP4 GT PUSH1 0x1 DUP2 EQ PUSH2 0x390 JUMPI PUSH0 DUP5 ISZERO PUSH2 0x37E JUMPI DUP3 DUP8 ADD MLOAD SWAP1 POP JUMPDEST PUSH2 0x388 DUP6 DUP3 PUSH2 0x30D JUMP JUMPDEST DUP7 SSTORE POP PUSH2 0x3EF JUMP JUMPDEST PUSH1 0x1F NOT DUP5 AND PUSH2 0x39E DUP7 PUSH2 0x17F JUMP JUMPDEST PUSH0 JUMPDEST DUP3 DUP2 LT ISZERO PUSH2 0x3C5 JUMPI DUP5 DUP10 ADD MLOAD DUP3 SSTORE PUSH1 0x1 DUP3 ADD SWAP2 POP PUSH1 0x20 DUP6 ADD SWAP5 POP PUSH1 0x20 DUP2 ADD SWAP1 POP PUSH2 0x3A0 JUMP JUMPDEST DUP7 DUP4 LT ISZERO PUSH2 0x3E2 JUMPI DUP5 DUP10 ADD MLOAD PUSH2 0x3DE PUSH1 0x1F DUP10 AND DUP3 PUSH2 0x2F1 JUMP JUMPDEST DUP4 SSTORE POP JUMPDEST PUSH1 0x1 PUSH1 0x2 DUP9 MUL ADD DUP9 SSTORE POP POP POP JUMPDEST POP POP POP POP POP POP JUMP JUMPDEST PUSH2 0x9B7 DUP1 PUSH2 0x404 PUSH0 CODECOPY PUSH0 RETURN INVALID PUSH1 0x80 PUSH1 0x40 MSTORE CALLVALUE DUP1 ISZERO PUSH2 0xF JUMPI PUSH0 PUSH0 REVERT JUMPDEST POP PUSH1 0x4 CALLDATASIZE LT PUSH2 0x60 JUMPI PUSH0 CALLDATALOAD PUSH1 0xE0 SHR DUP1 PUSH4 0x1FE5726C EQ PUSH2 0x64 JUMPI DUP1 PUSH4 0x43BC1612 EQ PUSH2 0x82 JUMPI DUP1 PUSH4 0x623118E6 EQ PUSH2 0xA0 JUMPI DUP1 PUSH4 0x8A48CA41 EQ PUSH2 0xBE JUMPI DUP1 PUSH4 0xD3C783F4 EQ PUSH2 0xDA JUMPI DUP1 PUSH4 0xDC9E0A71 EQ PUSH2 0xFA JUMPI JUMPDEST PUSH0 PUSH0 REVERT JUMPDEST PUSH2 0x6C PUSH2 0x118 JUMP JUMPDEST PUSH1 0x40 MLOAD PUSH2 0x79 SWAP2 SWAP1 PUSH2 0x432 JUMP JUMPDEST PUSH1 0x40 MLOAD DUP1 SWAP2 SUB SWAP1 RETURN JUMPDEST PUSH2 0x8A PUSH2 0x1A4 JUMP JUMPDEST PUSH1 0x40 MLOAD PUSH2 0x97 SWAP2 SWAP1 PUSH2 0x432 JUMP JUMPDEST PUSH1 0x40 MLOAD DUP1 SWAP2 SUB SWAP1 RETURN JUMPDEST PUSH2 0xA8 PUSH2 0x22F JUMP JUMPDEST PUSH1 0x40 MLOAD PUSH2 0xB5 SWAP2 SWAP1 PUSH2 0x46A JUMP JUMPDEST PUSH1 0x40 MLOAD DUP1 SWAP2 SUB SWAP1 RETURN JUMPDEST PUSH2 0xD8 PUSH1 0x4 DUP1 CALLDATASIZE SUB DUP2 ADD SWAP1 PUSH2 0xD3 SWAP2 SWAP1 PUSH2 0x5EA JUMP JUMPDEST PUSH2 0x235 JUMP JUMPDEST STOP JUMPDEST PUSH2 0xE2 PUSH2 0x260 JUMP JUMPDEST PUSH1 0x40 MLOAD PUSH2 0xF1 SWAP4 SWAP3 SWAP2 SWAP1 PUSH2 0x672 JUMP JUMPDEST PUSH1 0x40 MLOAD DUP1 SWAP2 SUB SWAP1 RETURN JUMPDEST PUSH2 0x102 PUSH2 0x389 JUMP JUMPDEST PUSH1 0x40 MLOAD PUSH2 0x10F SWAP2 SWAP1 PUSH2 0x432 JUMP JUMPDEST PUSH1 0x40 MLOAD DUP1 SWAP2 SUB SWAP1 RETURN JUMPDEST PUSH1 0x1 DUP1 SLOAD PUSH2 0x125 SWAP1 PUSH2 0x6E2 JUMP JUMPDEST DUP1 PUSH1 0x1F ADD PUSH1 0x20 DUP1 SWAP2 DIV MUL PUSH1 0x20 ADD PUSH1 0x40 MLOAD SWAP1 DUP2 ADD PUSH1 0x40 MSTORE DUP1 SWAP3 SWAP2 SWAP1 DUP2 DUP2 MSTORE PUSH1 0x20 ADD DUP3 DUP1 SLOAD PUSH2 0x151 SWAP1 PUSH2 0x6E2 JUMP JUMPDEST DUP1 ISZERO PUSH2 0x19C JUMPI DUP1 PUSH1 0x1F LT PUSH2 0x173 JUMPI PUSH2 0x100 DUP1 DUP4 SLOAD DIV MUL DUP4 MSTORE SWAP2 PUSH1 0x20 ADD SWAP2 PUSH2 0x19C JUMP JUMPDEST DUP3 ADD SWAP2 SWAP1 PUSH0 MSTORE PUSH1 0x20 PUSH0 KECCAK256 SWAP1 JUMPDEST DUP2 SLOAD DUP2 MSTORE SWAP1 PUSH1 0x1 ADD SWAP1 PUSH1 0x20 ADD DUP1 DUP4 GT PUSH2 0x17F JUMPI DUP3 SWAP1 SUB PUSH1 0x1F AND DUP3 ADD SWAP2 JUMPDEST POP POP POP POP POP DUP2 JUMP JUMPDEST PUSH0 DUP1 SLOAD PUSH2 0x1B0 SWAP1 PUSH2 0x6E2 JUMP JUMPDEST DUP1 PUSH1 0x1F ADD PUSH1 0x20 DUP1 SWAP2 DIV MUL PUSH1 0x20 ADD PUSH1 0x40 MLOAD SWAP1 DUP2 ADD PUSH1 0x40 MSTORE DUP1 SWAP3 SWAP2 SWAP1 DUP2 DUP2 MSTORE PUSH1 0x20 ADD DUP3 DUP1 SLOAD PUSH2 0x1DC SWAP1 PUSH2 0x6E2 JUMP JUMPDEST DUP1 ISZERO PUSH2 0x227 JUMPI DUP1 PUSH1 0x1F LT PUSH2 0x1FE JUMPI PUSH2 0x100 DUP1 DUP4 SLOAD DIV MUL DUP4 MSTORE SWAP2 PUSH1 0x20 ADD SWAP2 PUSH2 0x227 JUMP JUMPDEST DUP3 ADD SWAP2 SWAP1 PUSH0 MSTORE PUSH1 0x20 PUSH0 KECCAK256 SWAP1 JUMPDEST DUP2 SLOAD DUP2 MSTORE SWAP1 PUSH1 0x1 ADD SWAP1 PUSH1 0x20 ADD DUP1 DUP4 GT PUSH2 0x20A JUMPI DUP3 SWAP1 SUB PUSH1 0x1F AND DUP3 ADD SWAP2 JUMPDEST POP POP POP POP POP DUP2 JUMP JUMPDEST PUSH1 0x2 SLOAD DUP2 JUMP JUMPDEST DUP3 PUSH0 SWAP1 DUP2 PUSH2 0x243 SWAP2 SWAP1 PUSH2 0x8B2 JUMP JUMPDEST POP DUP2 PUSH1 0x1 SWAP1 DUP2 PUSH2 0x253 SWAP2 SWAP1 PUSH2 0x8B2 JUMP JUMPDEST POP DUP1 PUSH1 0x2 DUP2 SWAP1 SSTORE POP POP POP POP JUMP JUMPDEST PUSH1 0x60 DUP1 PUSH0 PUSH0 PUSH1 0x1 PUSH1 0x2 SLOAD DUP3 DUP1 SLOAD PUSH2 0x276 SWAP1 PUSH2 0x6E2 JUMP JUMPDEST DUP1 PUSH1 0x1F ADD PUSH1 0x20 DUP1 SWAP2 DIV MUL PUSH1 0x20 ADD PUSH1 0x40 MLOAD SWAP1 DUP2 ADD PUSH1 0x40 MSTORE DUP1 SWAP3 SWAP2 SWAP1 DUP2 DUP2 MSTORE PUSH1 0x20 ADD DUP3 DUP1 SLOAD PUSH2 0x2A2 SWAP1 PUSH2 0x6E2 JUMP JUMPDEST DUP1 ISZERO PUSH2 0x2ED JUMPI DUP1 PUSH1 0x1F LT PUSH2 0x2C4 JUMPI PUSH2 0x100 DUP1 DUP4 SLOAD DIV MUL DUP4 MSTORE SWAP2 PUSH1 0x20 ADD SWAP2 PUSH2 0x2ED JUMP JUMPDEST DUP3 ADD SWAP2 SWAP1 PUSH0 MSTORE PUSH1 0x20 PUSH0 KECCAK256 SWAP1 JUMPDEST DUP2 SLOAD DUP2 MSTORE SWAP1 PUSH1 0x1 ADD SWAP1 PUSH1 0x20 ADD DUP1 DUP4 GT PUSH2 0x2D0 JUMPI DUP3 SWAP1 SUB PUSH1 0x1F AND DUP3 ADD SWAP2 JUMPDEST POP POP POP POP POP SWAP3 POP DUP2 DUP1 SLOAD PUSH2 0x300 SWAP1 PUSH2 0x6E2 JUMP JUMPDEST DUP1 PUSH1 0x1F ADD PUSH1 0x20 DUP1 SWAP2 DIV MUL PUSH1 0x20 ADD PUSH1 0x40 MLOAD SWAP1 DUP2 ADD PUSH1 0x40 MSTORE DUP1 SWAP3 SWAP2 SWAP1 DUP2 DUP2 MSTORE PUSH1 0x20 ADD DUP3 DUP1 SLOAD PUSH2 0x32C SWAP1 PUSH2 0x6E2 JUMP JUMPDEST DUP1 ISZERO PUSH2 0x377 JUMPI DUP1 PUSH1 0x1F LT PUSH2 0x34E JUMPI PUSH2 0x100 DUP1 DUP4 SLOAD DIV MUL DUP4 MSTORE SWAP2 PUSH1 0x20 ADD SWAP2 PUSH2 0x377 JUMP JUMPDEST DUP3 ADD SWAP2 SWAP1 PUSH0 MSTORE PUSH1 0x20 PUSH0 KECCAK256 SWAP1 JUMPDEST DUP2 SLOAD DUP2 MSTORE SWAP1 PUSH1 0x1 ADD SWAP1 PUSH1 0x20 ADD DUP1 DUP4 GT PUSH2 0x35A JUMPI DUP3 SWAP1 SUB PUSH1 0x1F AND DUP3 ADD SWAP2 JUMPDEST POP POP POP POP POP SWAP2 POP SWAP3 POP SWAP3 POP SWAP3 POP SWAP1 SWAP2 SWAP3 JUMP JUMPDEST PUSH1 0x40 MLOAD DUP1 PUSH1 0x40 ADD PUSH1 0x40 MSTORE DUP1 PUSH1 0xB DUP2 MSTORE PUSH1 0x20 ADD PUSH32 0x4B7269732042656E6E6574000000000000000000000000000000000000000000 DUP2 MSTORE POP DUP2 JUMP JUMPDEST PUSH0 DUP2 MLOAD SWAP1 POP SWAP2 SWAP1 POP JUMP JUMPDEST PUSH0 DUP3 DUP3 MSTORE PUSH1 0x20 DUP3 ADD SWAP1 POP SWAP3 SWAP2 POP POP JUMP JUMPDEST DUP3 DUP2 DUP4 MCOPY PUSH0 DUP4 DUP4 ADD MSTORE POP POP POP JUMP JUMPDEST PUSH0 PUSH1 0x1F NOT PUSH1 0x1F DUP4 ADD AND SWAP1 POP SWAP2 SWAP1 POP JUMP JUMPDEST PUSH0 PUSH2 0x404 DUP3 PUSH2 0x3C2 JUMP JUMPDEST PUSH2 0x40E DUP2 DUP6 PUSH2 0x3CC JUMP JUMPDEST SWAP4 POP PUSH2 0x41E DUP2 DUP6 PUSH1 0x20 DUP7 ADD PUSH2 0x3DC JUMP JUMPDEST PUSH2 0x427 DUP2 PUSH2 0x3EA JUMP JUMPDEST DUP5 ADD SWAP2 POP POP SWAP3 SWAP2 POP POP JUMP JUMPDEST PUSH0 PUSH1 0x20 DUP3 ADD SWAP1 POP DUP2 DUP2 SUB PUSH0 DUP4 ADD MSTORE PUSH2 0x44A DUP2 DUP5 PUSH2 0x3FA JUMP JUMPDEST SWAP1 POP SWAP3 SWAP2 POP POP JUMP JUMPDEST PUSH0 DUP2 SWAP1 POP SWAP2 SWAP1 POP JUMP JUMPDEST PUSH2 0x464 DUP2 PUSH2 0x452 JUMP JUMPDEST DUP3 MSTORE POP POP JUMP JUMPDEST PUSH0 PUSH1 0x20 DUP3 ADD SWAP1 POP PUSH2 0x47D PUSH0 DUP4 ADD DUP5 PUSH2 0x45B JUMP JUMPDEST SWAP3 SWAP2 POP POP JUMP JUMPDEST PUSH0 PUSH1 0x40 MLOAD SWAP1 POP SWAP1 JUMP JUMPDEST PUSH0 PUSH0 REVERT JUMPDEST PUSH0 PUSH0 REVERT JUMPDEST PUSH0 PUSH0 REVERT JUMPDEST PUSH0 PUSH0 REVERT JUMPDEST PUSH32 0x4E487B7100000000000000000000000000000000000000000000000000000000 PUSH0 MSTORE PUSH1 0x41 PUSH1 0x4 MSTORE PUSH1 0x24 PUSH0 REVERT JUMPDEST PUSH2 0x4D2 DUP3 PUSH2 0x3EA JUMP JUMPDEST DUP2 ADD DUP2 DUP2 LT PUSH8 0xFFFFFFFFFFFFFFFF DUP3 GT OR ISZERO PUSH2 0x4F1 JUMPI PUSH2 0x4F0 PUSH2 0x49C JUMP JUMPDEST JUMPDEST DUP1 PUSH1 0x40 MSTORE POP POP POP JUMP JUMPDEST PUSH0 PUSH2 0x503 PUSH2 0x483 JUMP JUMPDEST SWAP1 POP PUSH2 0x50F DUP3 DUP3 PUSH2 0x4C9 JUMP JUMPDEST SWAP2 SWAP1 POP JUMP JUMPDEST PUSH0 PUSH8 0xFFFFFFFFFFFFFFFF DUP3 GT ISZERO PUSH2 0x52E JUMPI PUSH2 0x52D PUSH2 0x49C JUMP JUMPDEST JUMPDEST PUSH2 0x537 DUP3 PUSH2 0x3EA JUMP JUMPDEST SWAP1 POP PUSH1 0x20 DUP2 ADD SWAP1 POP SWAP2 SWAP1 POP JUMP JUMPDEST DUP3 DUP2 DUP4 CALLDATACOPY PUSH0 DUP4 DUP4 ADD MSTORE POP POP POP JUMP JUMPDEST PUSH0 PUSH2 0x564 PUSH2 0x55F DUP5 PUSH2 0x514 JUMP JUMPDEST PUSH2 0x4FA JUMP JUMPDEST SWAP1 POP DUP3 DUP2 MSTORE PUSH1 0x20 DUP2 ADD DUP5 DUP5 DUP5 ADD GT ISZERO PUSH2 0x580 JUMPI PUSH2 0x57F PUSH2 0x498 JUMP JUMPDEST JUMPDEST PUSH2 0x58B DUP5 DUP3 DUP6 PUSH2 0x544 JUMP JUMPDEST POP SWAP4 SWAP3 POP POP POP JUMP JUMPDEST PUSH0 DUP3 PUSH1 0x1F DUP4 ADD SLT PUSH2 0x5A7 JUMPI PUSH2 0x5A6 PUSH2 0x494 JUMP JUMPDEST JUMPDEST DUP2 CALLDATALOAD PUSH2 0x5B7 DUP5 DUP3 PUSH1 0x20 DUP7 ADD PUSH2 0x552 JUMP JUMPDEST SWAP2 POP POP SWAP3 SWAP2 POP POP JUMP JUMPDEST PUSH2 0x5C9 DUP2 PUSH2 0x452 JUMP JUMPDEST DUP2 EQ PUSH2 0x5D3 JUMPI PUSH0 PUSH0 REVERT JUMPDEST POP JUMP JUMPDEST PUSH0 DUP2 CALLDATALOAD SWAP1 POP PUSH2 0x5E4 DUP2 PUSH2 0x5C0 JUMP JUMPDEST SWAP3 SWAP2 POP POP JUMP JUMPDEST PUSH0 PUSH0 PUSH0 PUSH1 0x60 DUP5 DUP7 SUB SLT ISZERO PUSH2 0x601 JUMPI PUSH2 0x600 PUSH2 0x48C JUMP JUMPDEST JUMPDEST PUSH0 DUP5 ADD CALLDATALOAD PUSH8 0xFFFFFFFFFFFFFFFF DUP2 GT ISZERO PUSH2 0x61E JUMPI PUSH2 0x61D PUSH2 0x490 JUMP JUMPDEST JUMPDEST PUSH2 0x62A DUP7 DUP3 DUP8 ADD PUSH2 0x593 JUMP JUMPDEST SWAP4 POP POP PUSH1 0x20 DUP5 ADD CALLDATALOAD PUSH8 0xFFFFFFFFFFFFFFFF DUP2 GT ISZERO PUSH2 0x64B JUMPI PUSH2 0x64A PUSH2 0x490 JUMP JUMPDEST JUMPDEST PUSH2 0x657 DUP7 DUP3 DUP8 ADD PUSH2 0x593 JUMP JUMPDEST SWAP3 POP POP PUSH1 0x40 PUSH2 0x668 DUP7 DUP3 DUP8 ADD PUSH2 0x5D6 JUMP JUMPDEST SWAP2 POP POP SWAP3 POP SWAP3 POP SWAP3 JUMP JUMPDEST PUSH0 PUSH1 0x60 DUP3 ADD SWAP1 POP DUP2 DUP2 SUB PUSH0 DUP4 ADD MSTORE PUSH2 0x68A DUP2 DUP7 PUSH2 0x3FA JUMP JUMPDEST SWAP1 POP DUP2 DUP2 SUB PUSH1 0x20 DUP4 ADD MSTORE PUSH2 0x69E DUP2 DUP6 PUSH2 0x3FA JUMP JUMPDEST SWAP1 POP PUSH2 0x6AD PUSH1 0x40 DUP4 ADD DUP5 PUSH2 0x45B JUMP JUMPDEST SWAP5 SWAP4 POP POP POP POP JUMP JUMPDEST PUSH32 0x4E487B7100000000000000000000000000000000000000000000000000000000 PUSH0 MSTORE PUSH1 0x22 PUSH1 0x4 MSTORE PUSH1 0x24 PUSH0 REVERT JUMPDEST PUSH0 PUSH1 0x2 DUP3 DIV SWAP1 POP PUSH1 0x1 DUP3 AND DUP1 PUSH2 0x6F9 JUMPI PUSH1 0x7F DUP3 AND SWAP2 POP JUMPDEST PUSH1 0x20 DUP3 LT DUP2 SUB PUSH2 0x70C JUMPI PUSH2 0x70B PUSH2 0x6B5 JUMP JUMPDEST JUMPDEST POP SWAP2 SWAP1 POP JUMP JUMPDEST PUSH0 DUP2 SWAP1 POP DUP2 PUSH0 MSTORE PUSH1 0x20 PUSH0 KECCAK256 SWAP1 POP SWAP2 SWAP1 POP JUMP JUMPDEST PUSH0 PUSH1 0x20 PUSH1 0x1F DUP4 ADD DIV SWAP1 POP SWAP2 SWAP1 POP JUMP JUMPDEST PUSH0 DUP3 DUP3 SHL SWAP1 POP SWAP3 SWAP2 POP POP JUMP JUMPDEST PUSH0 PUSH1 0x8 DUP4 MUL PUSH2 0x76E PUSH32 0xFFFFFFFFFFFFFFFFFFFFFFFFFFFFFFFFFFFFFFFFFFFFFFFFFFFFFFFFFFFFFFFF DUP3 PUSH2 0x733 JUMP JUMPDEST PUSH2 0x778 DUP7 DUP4 PUSH2 0x733 JUMP JUMPDEST SWAP6 POP DUP1 NOT DUP5 AND SWAP4 POP DUP1 DUP7 AND DUP5 OR SWAP3 POP POP POP SWAP4 SWAP3 POP POP POP JUMP JUMPDEST PUSH0 DUP2 SWAP1 POP SWAP2 SWAP1 POP JUMP JUMPDEST PUSH0 PUSH2 0x7B3 PUSH2 0x7AE PUSH2 0x7A9 DUP5 PUSH2 0x452 JUMP JUMPDEST PUSH2 0x790 JUMP JUMPDEST PUSH2 0x452 JUMP JUMPDEST SWAP1 POP SWAP2 SWAP1 POP JUMP JUMPDEST PUSH0 DUP2 SWAP1 POP SWAP2 SWAP1 POP JUMP JUMPDEST PUSH2 0x7CC DUP4 PUSH2 0x799 JUMP JUMPDEST PUSH2 0x7E0 PUSH2 0x7D8 DUP3 PUSH2 0x7BA JUMP JUMPDEST DUP5 DUP5 SLOAD PUSH2 0x73F JUMP JUMPDEST DUP3 SSTORE POP POP POP POP JUMP JUMPDEST PUSH0 PUSH0 SWAP1 POP SWAP1 JUMP JUMPDEST PUSH2 0x7F7 PUSH2 0x7E8 JUMP JUMPDEST PUSH2 0x802 DUP2 DUP5 DUP5 PUSH2 0x7C3 JUMP JUMPDEST POP POP POP JUMP JUMPDEST JUMPDEST DUP2 DUP2 LT ISZERO PUSH2 0x825 JUMPI PUSH2 0x81A PUSH0 DUP3 PUSH2 0x7EF JUMP JUMPDEST PUSH1 0x1 DUP2 ADD SWAP1 POP PUSH2 0x808 JUMP JUMPDEST POP POP JUMP JUMPDEST PUSH1 0x1F DUP3 GT ISZERO PUSH2 0x86A JUMPI PUSH2 0x83B DUP2 PUSH2 0x712 JUMP JUMPDEST PUSH2 0x844 DUP5 PUSH2 0x724 JUMP JUMPDEST DUP2 ADD PUSH1 0x20 DUP6 LT ISZERO PUSH2 0x853 JUMPI DUP2 SWAP1 POP JUMPDEST PUSH2 0x867 PUSH2 0x85F DUP6 PUSH2 0x724 JUMP JUMPDEST DUP4 ADD DUP3 PUSH2 0x807 JUMP JUMPDEST POP POP JUMPDEST POP POP POP JUMP JUMPDEST PUSH0 DUP3 DUP3 SHR SWAP1 POP SWAP3 SWAP2 POP POP JUMP JUMPDEST PUSH0 PUSH2 0x88A PUSH0 NOT DUP5 PUSH1 0x8 MUL PUSH2 0x86F JUMP JUMPDEST NOT DUP1 DUP4 AND SWAP2 POP POP SWAP3 SWAP2 POP POP JUMP JUMPDEST PUSH0 PUSH2 0x8A2 DUP4 DUP4 PUSH2 0x87B JUMP JUMPDEST SWAP2 POP DUP3 PUSH1 0x2 MUL DUP3 OR SWAP1 POP SWAP3 SWAP2 POP POP JUMP JUMPDEST PUSH2 0x8BB DUP3 PUSH2 0x3C2 JUMP JUMPDEST PUSH8 0xFFFFFFFFFFFFFFFF DUP2 GT ISZERO PUSH2 0x8D4 JUMPI PUSH2 0x8D3 PUSH2 0x49C JUMP JUMPDEST JUMPDEST PUSH2 0x8DE DUP3 SLOAD PUSH2 0x6E2 JUMP JUMPDEST PUSH2 0x8E9 DUP3 DUP3 DUP6 PUSH2 0x829 JUMP JUMPDEST PUSH0 PUSH1 0x20 SWAP1 POP PUSH1 0x1F DUP4 GT PUSH1 0x1 DUP2 EQ PUSH2 0x91A JUMPI PUSH0 DUP5 ISZERO PUSH2 0x908 JUMPI DUP3 DUP8 ADD MLOAD SWAP1 POP JUMPDEST PUSH2 0x912 DUP6 DUP3 PUSH2 0x897 JUMP JUMPDEST DUP7 SSTORE POP PUSH2 0x979 JUMP JUMPDEST PUSH1 0x1F NOT DUP5 AND PUSH2 0x928 DUP7 PUSH2 0x712 JUMP JUMPDEST PUSH0 JUMPDEST DUP3 DUP2 LT ISZERO PUSH2 0x94F JUMPI DUP5 DUP10 ADD MLOAD DUP3 SSTORE PUSH1 0x1 DUP3 ADD SWAP2 POP PUSH1 0x20 DUP6 ADD SWAP5 POP PUSH1 0x20 DUP2 ADD SWAP1 POP PUSH2 0x92A JUMP JUMPDEST DUP7 DUP4 LT ISZERO PUSH2 0x96C JUMPI DUP5 DUP10 ADD MLOAD PUSH2 0x968 PUSH1 0x1F DUP10 AND DUP3 PUSH2 0x87B JUMP JUMPDEST DUP4 SSTORE POP JUMPDEST PUSH1 0x1 PUSH1 0x2 DUP9 MUL ADD DUP9 SSTORE POP POP POP JUMPDEST POP POP POP POP POP POP JUMP INVALID LOG2 PUSH5 0x6970667358 0x22 SLT KECCAK256 0xD PUSH11 0xB904A212F3025C4956440D SHR 0xE7 BLOBHASH 0xB3 XOR AND PUSH5 0x77A174C8B9 JUMPDEST ADDRESS PUSH21 0xF9F62B9664736F6C634300081C0033000000000000 "
				},
				"gasEstimates": {
					"creation": {
						"codeDepositCost": "497400",
						"executionCost": "infinite",
						"totalCost": "infinite"
					},
					"external": {
						"albumTitle()": "infinite",
						"artist()": "infinite",
						"contractAlbum()": "infinite",
						"getAlbum()": "infinite",
						"setAlbum(string,string,uint256)": "infinite",
						"tracks()": "2447"
					}
				},
				"methodIdentifiers": {
					"albumTitle()": "1fe5726c",
					"artist()": "43bc1612",
					"contractAlbum()": "dc9e0a71",
					"getAlbum()": "d3c783f4",
					"setAlbum(string,string,uint256)": "8a48ca41",
					"tracks()": "623118e6"
				}
			},
			"storageLayout": {
				"storage": [
					{
						"astId": 3,
						"contract": "contracts/Album.sol:Album",
						"label": "artist",
						"offset": 0,
						"slot": "0",
						"type": "t_string_storage"
					},
					{
						"astId": 6,
						"contract": "contracts/Album.sol:Album",
						"label": "albumTitle",
						"offset": 0,
						"slot": "1",
						"type": "t_string_storage"
					},
					{
						"astId": 8,
						"contract": "contracts/Album.sol:Album",
						"label": "tracks",
						"offset": 0,
						"slot": "2",
						"type": "t_uint256"
					}
				],
				"types": {
					"t_string_storage": {
						"encoding": "bytes",
						"label": "string",
						"numberOfBytes": "32"
					},
					"t_uint256": {
						"encoding": "inplace",
						"label": "uint256",
						"numberOfBytes": "32"
					}
				}
			},
			"userdoc": {
				"kind": "user",
				"methods": {},
				"version": 1
			}
		}
	}
}